:020000040800F2
:10800000E0930120A582000889EB000805DE000846
:1080100041EB0008AB9F0008212E01080000000082
:1080200000000000000000000000000057240108CC
:108030004DDB000800000000519B00083D260108B0
:10804000DF820008DF820008DF820008DF8200088C
:10805000DF820008DF820008DF820008DF8200087C
:10806000DF820008DF820008DF820008DF8200086C
:10807000DF820008DF820008DF820008DF8200085C
:10808000DF820008DF820008DF820008DF8200084C
:10809000C1A80008DF820008DF82000851DC000868
:1080A000DF820008DF820008DF820008DF8200082C
:1080B000DF820008DF82000841270108DF82000814
:1080C000DF820008DF820008DF820008DF8200080C
:1080D000DF820008292A0108DF820008A92A010896
:1080E000DF820008DF820008DF820008DF820008EC
:1080F000DF820008DF820008DF820008DF820008DC
:10810000DF820008DF820008DF820008DF820008CB
:10811000DF820008DF820008DF820008DF820008BB
:10812000DF820008DF82000801DA0008DF82000831
:10813000DF820008DF820008DF820008DF8200089B
:108140002DB20008DF820008DF820008DF8200080D
:10815000DF820008DF8200081DDA0008DF820008E5
:10816000DF820008DF820008DF820008DF8200086B
:10817000DF820008DF820008DF820008DF8200085B
:10818000DF820008DF82000800F002F800F07AF8D1
:108190000AA090E8000C82448344AAF10107DA4562
:1081A00001D100F06FF8AFF2090EBAE80F0013F03A
:1081B000010F18BFFB1A43F00103184744FD0000EC
:1081C00084FD000010F8013B0A4413F0030408BFCB
:1081D00010F8014B1D1108BF10F8015B641E05D09B
:1081E00010F8016B641E01F8016BF9D1002D15D058
:1081F00010F8014B03F00C030C2BA1EB04040ABF95
:1082000010F8013BA4EB8314A4EB032405F1010354
:1082100014F8016B5B1E01F8016BF9D5914238BF70
:1082200010F8013BD1D3704700230024002500261D
:10823000103A28BF78C1FBD8520728BF30C148BFC9
:108240000B60704766290EF02B82642900F088814C
:10825000782900F0EC81732900F08A8600207047AD
:108260001FB50EF018FA9DE8030000F0BBFB00F00C
:10827000CBFE0400002000210EF080F9E0601FBD5D
:1082800010B510BD00F0D9FF1146FFF7E9FF0BF064
:1082900069FF00F0F7FF03B4FFF7F2FF03BC0AF039
:1082A00083FF000011488047DFF84400016841F473
:1082B00070010160BFF34F8FDFF83800016821F0D3
:1082C00040410160BFF36F8F0B480047FEE7FEE7B8
:1082D000FEE7FEE7FEE7FEE7FEE7FEE7FEE7FEE776
:1082E00006480749074A084B704700006D260108F9
:1082F00088ED00E034EF00E089810008E0510120C2
:10830000E0930120E0530120E053012072B6704752
:1083100062B67047EFF3108072B6704780F3108832
:10832000704730BF704720BF7047B0FA80F0704789
:1083300090FAA0F0B0FA80F0704790FAA0F0704781
:10834000704770B5064600F031FB056806F10B007A
:1083500020F00704B4429CBF002070BD2B466A6821
:10836000BAB11068A04210D304F1080188423CBFA2
:108370005068586007D35168101941601168091B93
:10838000016058601460101D70BD13465268002AC9
:10839000E7D12146284600F011FB0028DED170BD50
:1083A00070B50446051F00F001FB0068002C14BFE7
:1083B000446870BD002C18BFAC423CBF20466468C6
:1083C000F8D301680A18AA4218BF456003D12A6889
:1083D00005461144016028684119A1421CBF6C6028
:1083E00070BD6168696021680844286070BD70B51F
:1083F0000D460646041F00F0D9FAD0F800C0C5B1FA
:10840000E6B105F10B0020F00703AB423CBF0020B2
:1084100070BD2068984238BFDCF8042013D3C11A1D
:1084200008292FD3E01840F8041B2360FFF7B8FF9A
:1084300028E03046FFF7B4FF002070BD2846BDE8B5
:108440007040FFF77EBF002A18BFA2423CBF94468F
:108450005268F8D30119914216D111680844984224
:1084600012D3C11A08293CBF2060506808D3516854
:10847000E0184160216812681144C91A0160236044
:10848000CCF80400201D70BD181FFFF75AFF05002F
:1084900007D021680A1F211D00F080FD201DFFF775
:1084A0007FFF284670BD00000FB4044910B503AA31
:1084B000029800F061FD10BC5DF814FB1400002070
:1084C00070B5044685690068C10601D5302600E014
:1084D0002026C00707D070BDD4E90121304690475F
:1084E000206A401C20626D1EF6D570BD70B5044632
:1084F00085690078C00707D170BDD4E9012120202B
:108500009047206A401C20626D1EF6D570BD70B584
:108510000C460546012A05D02878800600D5EA6970
:10852000002302E0012305E05B1C934202D2E05CE1
:108530000028F9D1A869E618C01AA861286A184469
:1085400028622846FFF7BCFF04E0D5E9012114F8B2
:10855000010B9047B442F8D32846FFF7C7FF70BD20
:108560002DE9F0410646002410687529314616A50C
:1085700010D0AFF30080002802DA404213A507E0D4
:1085800031688A0701D512A502E0490704D511A573
:10859000012401E0AFF3008000210A2206F1240744
:1085A00009E0B0FBF2FCB0FBF2F302FB1C00303040
:1085B00078541846491C0028F3D123462A463046F1
:1085C000BDE8F04100F044BA000000002D000000BA
:1085D0002B00000020000000F0B40D4601880905C2
:1085E00002D5214C7C4402E01F4C7C440E34002117
:1085F00000F1240608E002F00F071209E75D42EAE5
:1086000003721B097754491C52EA0307F3D102781D
:108610000023120704D5702D06D009B102231134AE
:108620002246F0BC00F014BA01231034F8E770B50C
:1086300004460D4621461068AFF3008002462946E5
:108640002046BDE870400023C6E7D21D22F0070394
:10865000D3E90023C0E70368126843F020030360F6
:108660000823C3610023B7E7E6F700002DE9F05FB8
:10867000894604464FF0000ADFF874B1FB44C0F8A5
:1086800020A02046E1688847002874D0252806D01D
:10869000D4E901219047206A401C2062F1E70026BE
:1086A0005F462046E16888472028054607DB312DD4
:1086B00005D2781910F8200C08B10643F1E7B0078D
:1086C00001D526F00406C4F81CA00027C4F818A0A1
:1086D0002A2D09D028460AF02BFC38B304EB870872
:1086E000303DC8F8185019E059F8041B204604EB37
:1086F00087029161E1688847012F054618D1E0693A
:10870000002820DA26F020061DE0D8F8180000EB3B
:10871000800005EB40003038C8F818002046E168BA
:10872000884705460AF004FC0028EED1012F0AD044
:108730002E2D08D12046E16888477F1C0546022F70
:1087400046F02006C4DBA069002803DA404246F068
:108750000106A061F00701D026F010066C2D0BD0A9
:10876000682D09D04C2D39D06A2D35D0742D35D0D7
:108770007A2D33D016E038E0E1682F46204688474E
:10878000B842054609D16C2F26D04FF48060E168CD
:10879000064320468847054604E06C2F1AD04FF464
:1087A000807006430DB3A5F14100192802D8203589
:1087B00046F400664A462946204626604E46FFF7A4
:1087C00041FD80B101280BD0F61D26F0070000F115
:1087D000080956E74020E4E78020D8E70020D6E7E4
:1087E00006F104094DE7284652E7206ABDE8F09FEC
:1087F00076F7000040EA010310B59B070FD1042A69
:108800000DD310C808C9121F9C42F8D020BA19BA5B
:10881000884201D9012010BD4FF0FF3010BD1AB1C0
:10882000D30703D0521C07E0002010BD10F8013B15
:1088300011F8014B1B1B07D110F8013B11F8014B3C
:108840001B1B01D1921EF1D1184610BD032A40F224
:10885000308010F0030C00F0158011F8013BBCF1E2
:10886000020F624498BF11F801CB00F8013B38BFFA
:1088700011F8013BA2F1040298BF00F801CB38BF08
:1088800000F8013B11F0030300F08883083AC0F0C0
:10889000088051F8043B083A51F804CBA0E80810CE
:1088A000F5E7121D5CBF51F8043B40F8043BAFF301
:1088B0000080D20724BF11F8013B11F801CB48BF5B
:1088C00011F8012B24BF00F8013B00F801CB48BF91
:1088D00000F8012B70474FF0000200B51346944694
:1088E0009646203922BFA0E80C50A0E80C50B1F108
:1088F0002001BFF4F7AF090728BFA0E80C5048BF1C
:108900000CC05DF804EB890028BF40F8042B08BFB9
:10891000704748BF20F8022B11F0804F18BF00F8B5
:10892000012B70474FF0013C50F8042B51F8043BE9
:108930009A4221D1A2EB0C03934313EACC1317D133
:1089400050F8042B51F8043B9A4215D1A2EB0C03CA
:10895000934313EACC130BD150F8042B51F8043B8A
:108960009A4209D1A2EB0C03934313EACC13DBD058
:108970004FF00000704700BFD01A01BAB1FA81F180
:1089800001F0180122FA01F0CB40C1F12001DBB265
:10899000C0B2C01A2CFA01F3D11A914311EAC311E3
:1089A000E6D170477047704770477047004870477E
:1089B00084510120704770477047704738B50446AE
:1089C0000A4600206946AFF30080002808BF38BD82
:1089D00002460099204600F01BFB012038BD012013
:1089E00000F024BCF8B5AFF30080054600200C462B
:1089F000102000BF0646A819A0420DD9324669468C
:108A00000020AFF30080070008BF00F00FFC0098C3
:108A1000A04218BF0546C419FFF7C8FF0560074606
:108A2000F01D20F007004619284600F00AF8B4426D
:108A300008BFF8BDA21B31463868BDE8F84000F019
:108A4000E7BA00210160C0E90110704710207047AB
:108A50002DE9F0470D4699469246044600F1240858
:108A60000168880604D5E06921F01001216000E06A
:108A70000120A84201DD471B00E00027A1697A1907
:108A800002EB0900081AA0612078C00602D4204633
:108A9000FFF716FD002608E0D4E901211AF80600C8
:108AA0009047206A401C761C20624E45F4DB2078FB
:108AB000C0060AD52046FFF703FD06E0D4E90121F0
:108AC00030209047206A401C2062381EA7F1010721
:108AD000F4DC07E0D4E9012118F805009047206A8A
:108AE000401C2062281EA5F10105F3DC2046FFF79B
:108AF000FDFC2078000602D50220BDE8F0870120A9
:108B0000FBE770472DE9FF4F0C461E464FF0FF373D
:108B10008BB0D2E90001DDF860800A908A46C1F38B
:108B20000A5505B93D46002108464FF00000BAF14C
:108B3000000F00F4400005DA00EB80004FF4400124
:108B400001EA50004FEA9059B9F1010F00DDB94632
:108B50000A9850EA4A000ED044F61050A5F2FF35AC
:108B600045432F14B8F1000F1ED07542291E1EDD9B
:108B7000C9F100021CE0B8F1010F4FF0000001D074
:108B8000302103E0F24305E02154401CB042FBDBFE
:108B900030460022002121540B99C1F80880C1E918
:108BA00000200FB0BDE8F08FBD1B6D1CDEE74A460C
:108BB00000DA694206A800F0CBFA06AB93E807009A
:108BC00003AB83E8070050460A9900F0A8FB8DE844
:108BD0000700A0F500501F3800900398002D09DD14
:108BE00042F21F014A46084403A90390684600F078
:108BF00007FE08E0A0F500504A461F3803A903907D
:108C0000684600F011FE8DE807000004000C03D058
:108C10004FF0FF30410800E01046B8F1000F03D0DC
:108C20000022009215461EE0751E05D400F00AFAD7
:108C3000303262556D1EF9D5B3460122084302D089
:108C400000227F1C04E02078302801D100227F1E02
:108C5000002A099786D01DE0112D07DA00F0F2F9FD
:108C6000303262556D1C50EA0102F5D1084302D042
:108C70000098C8B10EE00021681E05E0235C625C2C
:108C800063542254401E491C8142F7DBAB46A81BAB
:108C9000401E0990002004F80B000B98099AC0F8B8
:108CA0000880C0E9002B7CE711264FF0000859E747
:108CB0002DE9F04F88460446D21D22F0070191B0FD
:108CC000D1E90001CDE90A010AF0ACF802460B989F
:108CD000C00F01D02D2007E02068810701D52B208F
:108CE00002E0202101EAC000032A099001D0072AEE
:108CF00005DB03464146204600F0EAF90BE1207807
:108D0000800601D5E06900E00620B8F1650F8146D4
:108D100006D0B8F1660F18D0B8F1670F70D131E006
:108D20000020B9F1110F009001DB112301E009F1DE
:108D300001030AAA01A90CA8FFF7E4FEDDE90C7003
:108D4000002609F10105834647E001204B460090CB
:108D50004FF000470AAA01A90CA8FFF7D3FEDDE9EE
:108D60000DB00C995D46002610B909F101000D18EF
:108D7000B9EB050003D4C0F1FF3609F10105A5EBFD
:108D800009002BE0B9F1010F01DA4FF001090020D1
:108D9000B9F1110F0090484601DD112300E00346B0
:108DA0000AAA01A90CA8FFF7ADFEDDE90C704D463B
:108DB00000268346207800070AD4AB4500DA5D46DA
:108DC00001A8012D04DD411911F8011C302907D03B
:108DD0004F4502DA17F1040F04DA012082460FE052
:108DE0006D1EEEE7002F02DCED1B3E4403E0781C15
:108DF000A84200DD7D1CB81B00F1010A4FF00047BE
:108E00002078000703D4AA4501DB4FF0FF3A002188
:108E1000B7F1004F0DF143088DF8431024D0022024
:108E20002B23002F01DA7F422D230A21021EA0F1FD
:108E3000010000DC5FB197FBF1FC97FBF1F201FB55
:108E40001C7C17460CF1300C08F801CDEEE7A8F1B8
:108E5000010003702188090501D5452100E0652145
:108E6000A0F1010800F8011C09980FA9A1EB08075F
:108E7000FF1D00B10120411901EBEA70A1693844DE
:108E8000081A401EA0612078C00602D42046FFF7D1
:108E900017FB099828B1D4E901219047206A401CAA
:108EA00020622078C00622D52046FFF709FB1EE08D
:108EB000002E04DBB34502DD01A8805D00E0302018
:108EC000D4E901219047206A401C2062761CAAF157
:108ED00001005FEA000A0AD100F096F8C068016854
:108EE000405CD4E901219047206A401C2062281E82
:108EF000A5F10105DCDC07E0D4E9012118F8010B3C
:108F00009047206A401C2062381EA7F10107F3DC5D
:108F10002046FFF7EBFA032011B043E601694A1C33
:108F200002610878704700B58FB0CDE901310021AA
:108F3000059105497944CDE9031011466846FFF7CC
:108F400095FB0FB000BD0000E5FFFFFF10B54369C2
:108F500013B1AFF3008001E0FFF7D9FA012010BD93
:108F6000127800F124010A7000224A700122EDE714
:108F700011684FF0FF32E9E7074B70B50D467B44AF
:108F8000FFF7D1FF044628460AF052FF10B14FF018
:108F9000FF3070BD204670BDB7AE000010B5203A5E
:108FA000C0F00B80B1E81850203AA0E81850B1E8A2
:108FB0001850A0E81850BFF4F5AF5FEA027C24BF58
:108FC000B1E81850A0E8185044BF18C918C0BDE84F
:108FD00010405FEA827C24BF51F8043B40F8043B18
:108FE00008BF7047D20728BF31F8023B48BF11F8CD
:108FF000012B28BF20F8023B48BF00F8012B704727
:10900000004870477C510120004870479C51012066
:10901000034640688C46002818BF88423CBF034680
:109020004068F8D318681844884207D00CF1030050
:1090300020F00700001D411A521A0146081D0A605F
:10904000FFF7AEB930B5B0F10A024FEA900E71F1F8
:1090500000034EEA817EB0EB0E0061EB91014FEA16
:10906000101E4EEA017E10EB0E0041EB11114FEA8B
:10907000102E4EEA016E10EB0E0041EB11214FEA6B
:10908000104E4EEA014E10EB0E0041EB114140181C
:1090900041F100014FEAD00040EA41704FEAD101AE
:1090A00010EB80054FEA810444EA907444EB01041C
:1090B0006D1944EB0404521BA3414FF0000348BF59
:1090C0000A3200D530BD401C41F1000130BD000026
:1090D0002DE9F0411F46044603260168072A01F4E2
:1090E000006004DB08B116A505E016A503E008B191
:1090F00015A500E015A521F010002060A069C01E94
:10910000A0610FB1401EA0612046FFF7D9F94FB111
:10911000D4E9012138469047206A401C2062C01CD7
:10912000206206E0206AFAE7D4E9012115F8010B74
:109130009047761EF8D22046FFF7D8F9BDE8F081B7
:109140004E414E006E616E00494E4600696E6600EB
:109150002DE9F047814616468AB0334878440DC859
:109160008DE80D0030487844801C03AC0DC884E8BD
:109170000D0041F69B300844372190FBF1F290FB43
:10918000F1F5A5F1800501FB12041B3C02D56442F8
:10919000012000E00020DFF890A080460027FA447C
:1091A000AAF1BE0A0DE0E00709D03246684607EB97
:1091B00047010AEB810100F037FB8DE807006410DE
:1091C0007F1C002CEFD1184F7F44AC3F18E0E8071C
:1091D00014D007EB04100DF1180A90E80E008AE88D
:1091E0000E00C068F04201D198190890324606A9D5
:1091F00003A800F019FB03AB83E807006D10641CA3
:10920000002DE4D132466946B8F1000F03A802D020
:1092100000F0F6FA01E000F007FBC9E90001C9F827
:1092200008200AB0BDE8F08724ED000010B500F07A
:1092300035F8BDE8104000F02BB87546FFF7E0FEAA
:10924000AE4605006946534620F00700854618B033
:1092500020B5FFF745F8BDE820404FF000064FF07D
:1092600000074FF000084FF0000B21F00701AC465B
:10927000ACE8C009ACE8C009ACE8C009ACE8C0097A
:109280008D4670470446AFF300802046FFF703F891
:10929000002801D009F088BF7047000010B50128F0
:1092A00005D0002103A000F021F8012010BD09A184
:1092B000F8E7000053494752544D454D3A204F7549
:1092C00074206F662068656170206D656D6F7279BE
:1092D000000000003A2048656170206D656D6F7276
:1092E0007920636F727275707465640070B505469D
:1092F0000C460A2000E06D1C09F058FF35B12878B3
:109300000028F8D102E0641C09F050FF14B1207865
:109310000028F8D1BDE870400A2009F047BF5FEA95
:10932000400C08BF91F0000F4FEA8C234FEAC12296
:1093300043EA51514FEA1C5018BF00F5F0404FEA84
:10934000300018BF41F000415FEA6C5C00F02980FA
:10935000BCF1FF3F08BF40F080407047130C06BFD0
:1093600012044FF0100C4FF0000C130E04BF120249
:109370000CF1080C130F04BF12010CF1040C930F35
:1093800004BF92000CF1020CD30F04BF52000CF189
:10939000010C11464FF00002A0F11F00A0EB0C00E1
:1093A000704711F0004F08BF704731F000413FF4A3
:1093B000D5AF0B0C06BF09044FF0100C4FF0000C9A
:1093C0000B0E04BF09020CF1080C0B0F04BF0901BE
:1093D0000CF1040C8B0F04BF89000CF1020CCB0FB5
:1093E00004BF49000CF1010CCCF12003A0EB0C00F0
:1093F00022FA03F302FA0CF241EA030100F1010040
:10940000704720F07F4C80EA030023F07F47ACEBED
:10941000070303F57C5300F0004003F1FF032DE93F
:1094200080494FEA154B09B44FEA144325EA0B4E25
:1094300024EA03480FF2042606EB132749083E7876
:109440005FEA320203FB0667C7F5000707FB06F673
:109450004FEA54374FEAD64606F1020607FB066C80
:10946000CCF1005C4FEA1C472CEA074C07FB06F4E2
:109470000CFB06F504EB15464FEA961634BF0020A8
:109480004FF000404FEAD13706FB07FC4FEA1C4C77
:109490000CFB0BF7D21B03FB0CF761EB07010CFB7A
:1094A0000EF7B0EB074072EB17420CFB08F734BF26
:1094B000A2EB0742B2EB074261EB17414FEA0C44C3
:1094C0004FEA910706FB07FC4FEA1C4C0CFB0BF71D
:1094D000B0EBC74072EB573203FB0CF734BFA2EB83
:1094E000C742B2EBC74261EB57310CFB0EF7B0EB52
:1094F000C70072EB57720CFB08F734BFA2EBC70230
:10950000B2EBC70261EB5771039F4FEA816141EAF9
:10951000921104EBCC044FEAD1374FEA826206FB8A
:1095200007FC42EA90124FEA80604FEA1C4C0CFBA9
:109530000BF7D21B03FB0CF761EB07010CFB0EF7DB
:10954000B0EB074072EB17420CFB08F734BFA2EBFD
:109550000742B2EB074261EB17414FEA8C554FEAE5
:10956000910704EB9C2406FB07FC4FEA1C4C0CFB08
:109570000BF7B0EBC74072EB573203FB0CF734BF6D
:10958000A2EBC742B2EBC74261EB57310CFB0EF7BF
:10959000B0EBC70072EB57720CFB08F734BFA2EBBD
:1095A000C702B2EBC70261EB577115EB4C254FEACE
:1095B000816141EA92114FEA82624FEAD13742EA71
:1095C000901206FB07FC44F100044FEA80604FEA6A
:1095D0001C4C0CFB0BF7D21B03FB0CF761EB0701D8
:1095E0000CFB0EF7B0EB074072EB17420CFB08F7D1
:1095F00034BFA2EB0742B2EB074261EB174115EB18
:109600001C154FEA813141EA92414FEA823242EA27
:1096100090424FEA80304FEA0C7644F1000448EA69
:1096200003434EEA0B484FF0000EB2EB080C71EB0F
:10963000030724BF624639464EEB0E0E4FF0000B77
:109640000018524149414BEB0B0BB2EB080C71EB8C
:1096500003077BF1000B24BF624639464EEB0E0E2A
:109660004FF0000B0018524149414BEB0B0BB2EB92
:10967000080C71EB03077BF1000B24BF62463946EF
:109680004EEB0E0E51EA020718BF46F0010616EB2C
:109690000E7655F1000254F1000103D5BDE88901B1
:1096A000BDE80088BDE88901BDE80048B61952410F
:1096B00041EB0101A3F10103704780807F7E7D7C37
:1096C0007B7A7978777676757473727171706F6E54
:1096D0006E6D6C6C6B6A6A696868676666656464FF
:1096E000636362616160605F5F5E5E5D5D5C5C5B89
:1096F0005B5A5A59595858575756565555555454F8
:10970000535352525251515050504F4F4F4E4E4D55
:109710004D4D4C4C4C4B4B4B4A4A4A4949494848A1
:1097200048474747474646464545454444444443E1
:1097300043434342424242414141002B26D47700F9
:1097400021D01CB54FEA370703B44FF010004FF09B
:1097500010014FF000000FBCBDE810400BF1010BF1
:10976000BBF1010F08BF5FEA170722BF12F1010228
:1097700011F101014FF0004143F1000300F00040FE
:1097800043EA00007047F9D35708DAE746EA06468D
:1097900013F1400F4FEA16461FDD13F1200FDFBF14
:1097A00016430A46002120335B42C8D0C3F120078C
:1097B00046EA064602FA07F74FEA164646EA070661
:1097C000C3F1200722FA03F201FA07F721FA03F1A5
:1097D0004FF0000342EA0702B1E746EA020646EA12
:1097E00006464FEA164646EA0106BCBF46EA06466A
:1097F000360C4FF000034FF000024FF000019EE7DF
:109800002DE9C048934630B491E8380007C831EAE2
:10981000400C48BF34EA430C03D5FFF7F2FDFFF7D5
:109820008CFFF0BCBDE800882DE9C048934630B4F9
:1098300091E8380007C810F0804F08BF13F0804F40
:1098400003D100F005F8FFF778FFF0BCBDE8008811
:1098500020F07F4780EA030023F07F4C07EB0C03E6
:10986000A3F57C5300F00040A3F1FE0392F0000F3B
:1098700000F0B38095F0000F00F077802DE90149EA
:109880004FEA11404FEA144621EA004800FB06FC6B
:1098900024EA064708FB06F607FB08F800FB07F773
:1098A00018EB06484CEB164C4FEA124B18EB0748E6
:1098B0004FEA15464CEB174022EA0B4E0BFB06FC19
:1098C00025EA06470EFB06F607FB0EFE0BFB07F725
:1098D0001EEB064E4CEB164C4FF000061EEB074EEF
:1098E0004CEB174B18EB0B0840F1000018EB0E0B7C
:1098F00058EB000840F100008F1A4FF000013CBF08
:10990000C943661B14BFB5EB040C00213CBFC9431F
:10991000F61B4FEA17444EEA8E0E27EA04454FEA3B
:109920001C4704FB07622CEA074C05FB07F70CFBFE
:1099300005F604FB0CFC16EB074642EB174216EB50
:109940000C4642EB1C421BEB060658EB020241415F
:1099500046EA9E0601D5BDE80189B619524141EBA0
:109960000101A3F10103BDE801894FEA14454FEA63
:10997000114724EA054621EA074C05FB07F406FBDC
:1099800007F70CFB06F105FB0CFC11EB074144EB60
:1099900017444FEA124711EB0C4144EB1C4422EAF6
:1099A000074C05FB07F206FB07F70CFB06F605FB69
:1099B0000CFC16EB074642EB174216EB0C4642EB4B
:1099C0001C456A1854F1000148BF7047B61952414E
:1099D00041EB0101A3F10103704795F0000F37D06F
:1099E0004FEA11424FEA144721EA024624EA074CA3
:1099F00002FB07F106FB07F70CFB06F402FB0CFC6D
:109A000014EB074441EB17414FEA154714EB0C44A4
:109A100041EB1C4125EA074C02FB07F506FB07F763
:109A20000CFB06F602FB0CFC16EB074645EB174554
:109A300016EB0C4645EB1C42121951F1000148BFD0
:109A40007047B619524141EB0101A3F10103704780
:109A50004FEA14454FEA114724EA054621EA074C2C
:109A600005FB07F106FB07F70CFB06F24FF00006BB
:109A700005FB0CFC12EB074241EB174112EB0C42C9
:109A800051EB1C4148BF7047921841EB0101A3F113
:109A900001037047EFF3098141B1F1EE101A40F86C
:109AA000041D20ED200A3E490A6810607047B0ECA2
:109AB000200A02C8E1EE101A3A490A68106070479D
:109AC00072B64EF62250CEF2000040F2FF01C0F214
:109AD000000101704FF0000080F3098806F0F2F9F0
:109AE00040F28C00C1F20000016881F3088840F266
:109AF0005000C1F2000040F24201C2F200010A78B7
:109B0000027040F28805C1F2000540F27C01C2F209
:109B100000010A682A60106880F30988EFF3148056
:109B200040F0020080F31488BFF36F8FBDE8F00FA0
:109B30000FBCBDE8005006BC62B608471A484FF09B
:109B400080510160704718484FF0805101607047A4
:109B500072B6EFF3098020E9F00F40F28805C1F2F8
:109B600000052E683060744606F0ACF940F25000F3
:109B7000C1F2000040F24201C2F200010A78027014
:109B800040F27C01C2F200010A682A6044F0F40E3F
:109B90001068B0E8F00F80F3098862B670470000E3
:109BA000880000107C00002004ED00E02DE9F04367
:109BB0008BB0FEF7AFFBDFF8B48198F80010491CBA
:109BC00088F80010FEF7AAFB002403266848CDE9B8
:109BD000064609AD0895059401AB8022016B83E828
:109BE00017000420009062482346624A62A1C438EC
:109BF00005F0DAFD4FF007096248CDE906490895FE
:109C00000594D0F8CC1001AA4FF40077049482E8B0
:109C100083000C2000905B4800235B4A5BA1C438A2
:109C200005F0C2FD5C48CDE9064608950594D0F8DC
:109C3000CC1001AA049482E88300052000905648C5
:109C40000023564A56A1C43805F0AEFD5A48CDE966
:109C5000064608950594D0F8CC1001AA049482E831
:109C600083000620009054480023544A54A1C4386D
:109C700005F09AFD5748CDE9064608950594D0F8B9
:109C8000CC100DF1040CCDF8009004948CE8830006
:109C90000023514A51A1C43805F086FD5448CDE94E
:109CA000064608950594D0F8CC1001AA049482E8E1
:109CB0008300082000904E4800234E4A4EA1C4382D
:109CC00005F072FD5148CDE9064608950594D0F897
:109CD000CC1001AA049482E88300092000904B482C
:109CE00000234B4A4BA1C43805F05EFD4E48CDE938
:109CF000064608950594D0F8CC1001AA049482E891
:109D000083000A20009048480023484A48A1C438EC
:109D100005F04AFD4B48CDE9064608950594D0F874
:109D2000CC1001AA049482E883000B2000904548DF
:109D30000023454A45A1C43805F036FDFEF7EAFA8E
:109D400098F80010491E11F0FF0188F8001009D1A1
:109D50004349098831B1FEF7E1FA07F033F80BB057
:109D6000BDE8F083FEF7DAFAF9E700004C000020C6
:109D700008AA00203DE900084D61696E5F746173B7
:109D80006B000000CCAC0020B54001086B65795F2A
:109D90007461736B0000000090B5002091D600083C
:109DA00043616E334368616E676548656172745FD5
:109DB0007461736B0000000054BE00203D33010845
:109DC00043414E314D617374657252785F746173B3
:109DD0006B00000018C700205534010843414E3184
:109DE0004D617374657254785F7461736B00000029
:109DF000DCCF0020BD34010843414E324D61737405
:109E0000657252785F7461736B000000A0D8002007
:109E1000CD35010843414E324D61737465725478FB
:109E20005F7461736B00000064E100203536010847
:109E300043414E334D617374657252785F74617340
:109E40006B00000028EA0020C137010843414E336F
:109E50004D617374657254785F7461736B000000B8
:109E6000400000101CB500F04BF803F0D1FB684631
:109E700005F044FC6A460521012005F041FA0FA2D5
:109E80000021114800F066F80F4801AA0FA1283000
:109E900004F0E8FF01AB00220FA1124805F088FA98
:109EA000FFF784FE4FF47A7009F018FF03F066FEA6
:109EB00069460D4807F012FC1CBD000053454D5F7C
:109EC00053594E434800000028F2002043414E33CE
:109ED0005F4D55544558000063616E33726563767B
:109EE00073656D00C492001080A000201FB5684605
:109EF00008F02CF9019804B010BD04F075B800000A
:109F000010B54FF4A06004F073FE08F0F1FEA82035
:109F100009F0BCFE08F096F900F048F803F04EFB9B
:109F20004FF47A7009F04EF903F0A2FC04F062FCE1
:109F300004F02AFC034908700146BDE8104002A065
:109F4000FEF7B2BA03000010B0E5BFA869643D2572
:109F5000640D0A0038B514460A466B46214605F0E2
:109F600027FABDF8000008B1002038BD012038BD37
:109F70000EB542F210724FF47A71904201D9104638
:109F800001E0884207D3B0FBF1F3B0FBF1F201FB33
:109F9000130392B201E083B2002202A90020CDE9AE
:109FA0000001014606F020F80EBDFEE71CB50121B8
:109FB000084608F087F84FF48070009001208DF873
:109FC000040000208DF8060003208DF80500022013
:109FD0008DF807006946034803F084FE00F004F89A
:109FE0001CBD00000000024000224FF480710148B7
:109FF00003F0D2BE000002402DE9F04FA9480C4604
:10A0000085B00027075541F40450049041F40050F6
:10A01000039041F4C040029041F44050019044F458
:10A0200044500090A248A04EDFF880B200783D4630
:10A0300041F4885941F4805A44F4C2480B2C11D29F
:10A04000DFE804F010060926262626262626260006
:10A05000022802D006E0012808D10627214695A053
:10A06000FEF722FA92480078012813D09948007828
:10A07000012868D0062F67D1974B185D002863D15F
:10A080000022884C11460320275C002F75D0D7E0B2
:10A090000227E3E79148007801280DD0062F75D1FB
:10A0A0008D4B185D002871D100227E4C1146032093
:10A0B000275C002F4BD04CE089480078012865D1FF
:10A0C000062F09D0022F61D10022764B824C114617
:10A0D00003201F5CC7B119E07F4A105D012805D03D
:10A0E00080A0FEF7E1F944F4804147E0002103201D
:10A0F000135C0BB9491CC9B2401CC0B20A28F7D97D
:10A10000002943D184A06FE0521CD2B2275C0FB962
:10A11000491CC9B2401CC0B20A28DAD9012A03D0AE
:10A1200034D979B18AA074E019B101292ED994A04B
:10A1300077E0A0A058E00095D6F82003002302782D
:10A14000594821E001E02CE020E0A7A070E0521C7B
:10A15000D2B21F5C0FB9491CC9B2401CC0B20A2858
:10A16000A6D312B1A9B1AEA076E0B8A0FEF79CF9D3
:10A170005A4901200870022090E05FE00095DBF86A
:10A1800020030023027849480BF0CEFD05B0BDE85E
:10A19000F08FBAA0FEF788F950490120087002201C
:10A1A00071E04F4800780128F0D1062F09D0022F26
:10A1B000ECD100223B4B484C114603201F5CCFB131
:10A1C0001AE0454A105D012801D0B8A029E000211D
:10A1D0000320135C0BB9491CC9B2401CC0B20A2849
:10A1E000F7D90029D2D1BEA0FEF75EF908F006FA31
:10A1F0004946A0E7521CD2B2275C0FB9491CC9B22C
:10A20000401CC0B20A28D9D9012A06D0BED971B1E2
:10A21000C1A0FEF749F903998DE731B10129B5D9FC
:10A22000C5A0FEF741F9514685E7CCA0DCE7D3A0F5
:10A23000FEF73AF908F0E2F904997CE7521CD2B231
:10A240001F5C0FB9491CC9B2401CC0B20A28FFF4F8
:10A250001BAF72B181B1D1A0FEF726F90095DBF8F2
:10A26000200302990023027810480BF05DFD01994C
:10A2700061E761B1D5A00BE0E0A0FEF715F9174941
:10A2800002200870012013490870009953E7E7A0E5
:10A29000FEF70AF911490220087001200D490870E3
:10A2A00041466BE760A0002034950020184900204B
:10A2B0000300001043414E314D61737465725F6855
:10A2C00065617274626561744572726F7220256493
:10A2D0000D0A0000060000106FA00020050000100D
:10A2E00001000010636375312063616E3220B7A2F4
:10A2F000CBCD20657272436F64653D307834307821
:10A30000782020B8B1BFD832BBB5A3ACB2BBBFC9AF
:10A31000C7D0BBBB200D0A00636375312063616E3B
:10A320003220B7A2CBCD20657272436F64653D3099
:10A3300078313178782028B8B1BFD829B5A5B5E3F0
:10A34000B9CAD5CFA3ACBFC9C7D0BBBB0D0A0000EB
:10A35000636375312063616E3220B7A2CBCD2030AC
:10A36000783230787820D6F7B8C9CFDFB6CFB9CAFF
:10A37000D5CFA3ACB2BBBFC9C7D0BBBB0D0A0000D1
:10A38000636375312063616E3220B7A2CBCD206547
:10A390007272436F64653D3078313078782020B533
:10A3A000A5B5E3B9CAD5CFA3ACB2BBBFC9C7D0BBB3
:10A3B000BB0D0A00636375312063616E3220B7A262
:10A3C000CBCD20657272436F64653D307831317852
:10A3D000782020B5A5B5E3B9CAD5CFA3ACBFC9C70E
:10A3E000D0BBBB0D0A000000636375312063616E52
:10A3F0003220B7A2CBCD20657272436F64653D30C9
:10A4000078323178782020D6F7B8C9CFDFB6CFB907
:10A41000CAD5CFA3ACBFC9C7D0BBBB0D0A000000D3
:10A4200063637531206973206E6F74206D61696E8E
:10A430002030783330787820D6F7BFD832BBB5A338
:10A44000ACB2BBBFC9C7D0BBBB0D0A0063637531DB
:10A45000206973206E6F74206D61696E2063616E78
:10A46000312030783630787820D6F7BFD832BBB577
:10A47000A3ACBFC9C7D0BBBB0D0A00006363753175
:10A48000206973206E6F74206D61696E2063616E48
:10A49000312030783330787820D6F7BFD832BBB54A
:10A4A000A3ACBFC9C7D0BBBB0D0A00006363753145
:10A4B0002063616E3220B7A2CBCD20657272436FEC
:10A4C00064653D3078313078782020B8B1BFD8321B
:10A4D000BBB5A3ACB2BBBFC9C7D0BBBB200D0A0084
:10A4E000636375322063616E3220B7A2CBCD2065E5
:10A4F0007272436F64653D3078313178782028B8C6
:10A50000B1BFD829B5A5B5E3B9CAD5CFA3ACBFC9EA
:10A51000C7D0BBBB0D0A0000636375322063616E58
:10A520003220B7A2CBCD2030783230787820BFC926
:10A53000C7D0BBBB0D0A0000636375322063616E38
:10A540003220B7A2CBCD2030783130787820B2BB22
:10A55000BFC9C7D0BBBB0D0A0000000063637532E2
:10A560002063616E3220B7A2CBCD203078313178B4
:10A570007820BFC9C7D0BBBB0D0A0000636375322A
:10A580002063616E3220B7A2CBCD20307832317893
:10A590007820BFC9C7D0BBBB0D0A0000636375320A
:10A5A000206973206E6F74206D61696E2063616E27
:10A5B000312030783331787820D6F7BFD83120B2C7
:10A5C000BBBFC9C7D0BBBB0D0A00000063637532B7
:10A5D000206973206E6F74206D61696E2063616EF7
:10A5E0003120783630787820D6F7BFD831BBB5A384
:10A5F000ACBFC9C7D0BBBB0D0A0000006363753296
:10A60000206973206E6F74206D61696E2063616EC6
:10A610003120783330787820D6F7BFD831BBB5A356
:10A62000ACBFC9C7D0BBBB0D0A0000006363753265
:10A63000206973206E6F74206D61696E2063616E96
:10A640003120307836307878D6F73120BFC9C7D07E
:10A65000BBBB0D0A0000000001A0FDF725BF0000F4
:10A6600043414E314D61737465725F696E697469FF
:10A67000616C69736174696F6E0D0A0001A0FDF76A
:10A6800013BF000043414E314D61737465725F6FBB
:10A690007065726174696F6E616C0D0A0000000074
:10A6A00070B5144A05460C461278012A0CD012489F
:10A6B0000078012814D0052128460BF023FD0FA0B7
:10A6C000BDE87040FDF7F0BE17480078012805D0BE
:10A6D000052128460BF016FD14A0F1E71EA000E0AE
:10A6E00027A0FDF7E1FE21462846BDE8704003F0B3
:10A6F000E7B8000003000010060000104343553285
:10A700002043414E312050726F74206973204E6F88
:10A7100074204F7072656174652043414E31204250
:10A72000555320210D0A0000050000104343553108
:10A730002043414E312050726F74206973204E6F58
:10A7400074204F7072656174652043414E31204220
:10A75000555320210D0A0000434355312043414EFB
:10A76000314D61737465725F706F73745F536C61A8
:10A770007665426F6F7475702025780D0A000000B1
:10A78000434355322043414E314D61737465725FCE
:10A79000706F73745F536C617665426F6F74757020
:10A7A0002025780D0A00000010B5044C04A0216893
:10A7B000FDF77AFE2068401C206010BD9800002044
:10A7C00043414E314D61737465725F706F73745F96
:10A7D0005450444F204D617374657253796E6343D6
:10A7E0006F756E74203D202564200D0A0000000066
:10A7F00070B5140BC2F303251348FDF755FE002373
:10A8000001201249124A012C0ED0022C0CD0042C2B
:10A8100012D0052C10D0012D0DD10E4902230E4A65
:10A820000C78012C0DD104E0012D04D10C78012C01
:10A8300001D10B70107070BD012DFCD11478012C6A
:10A84000F9D10870137070BD9C7E010801000010E2
:10A8500002000010050000100600001001A0FDF726
:10A8600023BE000043414E314D61737465725F70C9
:10A870006F73745F73796E630D0A000001A0FDF7BA
:10A8800013BE000043414E314D61737465725F70B9
:10A8900072654F7065726174696F6E616C0D0A004C
:10A8A00001A0FDF701BE000043414E314D617374BC
:10A8B00065725F73746F707065640D0A000000004C
:10A8C00070B5264C86B00421204600F087FE18B1F2
:10A8D0000421204600F0CAFD0821204600F07EFE3B
:10A8E00018B10821204600F0C1FD0221204600F0E9
:10A8F00075FE012830D10221204600F0B7FD6A46DE
:10A900000021204600F03AFF154C62691046521CA7
:10A91000642A00D30022134900EB400001EB8001C0
:10A92000009808809DF80900022807D00020887050
:10A930009DF80A00C87000206B4606E00120F6E78B
:10A940001D180E18ED7A3571401CCD788542F7D868
:10A9500062612068401C206006B070BD0064004049
:10A96000A0000010181401202DE9F04FA8480C4653
:10A97000002585B0A74E05550B2912D2DFE801F05E
:10A980001106120E0E0E0E0E0E0E0E00307802285C
:10A9900008D10627A0A0FDF787FD03E00227A6A0A7
:10A9A000F9E70027337844F4A240049044F4A0402F
:10A9B000039044F4C040029044F440500190A64AF1
:10A9C000A64E44F44450A6494FF0020B44F4824A88
:10A9D00044F4804944F4C2480090012B10D0A148AF
:10A9E000007801286BD0062F76D1085D002873D13E
:10A9F0000023874C1A4603200F5C002F6FD0D5E050
:10AA00009948007801280CD0062F65D1085D0028F0
:10AA100062D100237E4C1A4603200F5C002F41D0E8
:10AA200042E01078012857D1062F08D0022F53D1C9
:10AA30000022774C134603200F5C9FB114E0085DA1
:10AA4000012801D089A074E0002203200B5C0BB91F
:10AA5000521CD2B2401CC0B20A28F7D9002A3BD1FE
:10AA60008FA077E0521CD2B2275C0FB95B1CDBB21F
:10AA7000401CC0B20A28DFD9012B03D02CD97AB1EF
:10AA800095A07CE01AB1012A26D99CA07FE0A4A061
:10AA900060E00095D6F82003002302786F4819E0A3
:10AAA000A7A07BE05B1CDBB2275C0FB9521CD2B2C3
:10AAB000401CC0B20A28B0D393B1A2B101E026E095
:10AAC0000AE0A7A07EE0B14800950023D0F820035B
:10AAD0000278AE480BF028F905B0BDE8F08F63E0CE
:10AAE0005AB1ABA00AE0B5A0FDF7DEFC5E4901203B
:10AAF00008705C4981F800B07DE0BBA0FDF7D4FC94
:10AB0000594901200870574981F800B07EE010785B
:10AB10000128E1D1062F08D0022FDDD100223C4CC4
:10AB2000134603200F5CDFB11CE0085D012804D050
:10AB3000B7A0FDF7B9FC4946C5E7002203200B5C2E
:10AB40000BB9521CD2B2401CC0B20A28F7D9002A55
:10AB5000C2D1BCA0FDF7A8FC07F050FD514698E714
:10AB6000521CD2B2275C0FB95B1CDBB2401CC0B2D6
:10AB70000A28D7D9012B06D0AED972B1BFA0FDF7F4
:10AB800093FC039985E732B1012AA5D9C4A0FDF74A
:10AB90008BFC49467DE7CBA0DCE7D2A0FDF784FC27
:10ABA00007F02CFD049974E75B1CDBB2275C0FB93E
:10ABB000521CD2B2401CC0B20A28FFF41DAF73B1C0
:10ABC00082B1D0A0FDF770FC0095D6F82003029961
:10ABD0000023027821480BF0A7F8019973E762B1CE
:10ABE000D3A00BE0DDA0FDF75FFC1F49012081F839
:10ABF00000B01C490870009965E7E3A0FDF754FC1C
:10AC00001949012081F800B016490870414640E713
:10AC10006FA000200300001043414E324D61737459
:10AC200065725F6865617274626561744572726FA6
:10AC3000722025640D0A000043414E314D6173744A
:10AC400065725F6865617274626561744572726F86
:10AC5000722025640D0A000002000010184900202F
:10AC600060A000200600001005000010636375312D
:10AC70002063616E3120B7A2CBCD20657272436F25
:10AC800064653D3078363178782020B8B1BFD8324D
:10AC9000BBB5A3ACB2BBBFC9C7D0BBBB200D0A00BC
:10ACA000636375312063616E3120B7A2CBCD20651F
:10ACB0007272436F64653D3078343178782028B8FB
:10ACC000B1BFD829B5A5B5E3B9CAD5CFA3ACBFC923
:10ACD000C7D0BBBB0D0A0000636375312063616E92
:10ACE0003120B7A2CBCD2030783530787820B2BB78
:10ACF000BFC9C7D0BBBB0D0A00000000636375313C
:10AD00002063616E3120B7A2CBCD2030783430780B
:10AD10007820B2BBBFC9C7D0BBBB0D0A0000000082
:10AD2000636375312063616E3120B7A2CBCD2030D3
:10AD3000783431787820BFC9C7D0BBBB0D0A00007A
:10AD4000636375312063616E3120B7A2CBCD2030B3
:10AD5000783531787820BFC9C7D0BBBB0D0A000059
:10AD60006E6F74206D61696E20636375312063615D
:10AD70006E322030783631787820D6F7BFD832203E
:10AD8000B2BBBFC9C7D0BBBB0D0A000034950020C1
:10AD90006E6F74206D61696E20636375312063612D
:10ADA0006E3220783630787820D6F7BFD832BBB5EF
:10ADB000A3ACBFC9C7D0BBBB0D0A00006E6F742027
:10ADC0006D61696E20636375312063616E3220208E
:10ADD000783330787820D6F7BFD832BBB5A3ACBF74
:10ADE000C9C7D0BBBB0D0A006E6F74206D61696E60
:10ADF00020636375312063616E322030783630789D
:10AE000078D6F73220BFC9C7D0BBBB0D0A000000FF
:10AE1000636375322063616E3220B7A2CBCD2065AB
:10AE20007272436F64653D3078343078782020B892
:10AE3000B1BFD832BBB5A3ACB2BBBFC9C7D0BBBBD7
:10AE4000200D0A00636375322063616E3120B7A262
:10AE5000CBCD20657272436F64653D3078343178B4
:10AE6000782028B8B1BFD829B5A5B5E3B9CAD5CFE0
:10AE7000A3ACBFC9C7D0BBBB0D0A0000636375326A
:10AE80002063616E3120B7A2CBCD202030783530E1
:10AE9000787820B2BBBFC9C7D0BBBB0D0A00000089
:10AEA000636375322063616E3120B7A2CBCD203051
:10AEB000783430787820B2BBBFC9C7D0BBBB0D0A8D
:10AEC00000000000636375322063616E3120B7A219
:10AED000CBCD2030783431787820BFC9C7D0BBBB08
:10AEE0000D0A0000636375322063616E3120B7A2E2
:10AEF000CBCD2030783531787820BFC9C7D0BBBBE7
:10AF00000D0A00006E6F74206D61696E20636375B9
:10AF1000322063616E322030783631787820D6D096
:10AF2000BFD83120B2BBBFC9C7D0BBBB0D0A000020
:10AF30006E6F74206D61696E20636375322063618A
:10AF40006E3220783630787820D6F7BFD831BBB54E
:10AF5000A3ACBFC9C7D0BBBB0D0A00006E6F742085
:10AF60006D61696E20636375322063616E32207893
:10AF70003330787820D6F7BFD831BBB5A3ACBFC982
:10AF8000C7D0BBBB0D0A00006E6F74206D61696E87
:10AF900020636375322063616E32203078363078FA
:10AFA0007820D6F73120BFC9C7D0BBBB0D0A00003F
:10AFB00001A0FDF779BA000043414E324D61737430
:10AFC00065725F696E697469616C69736174696FD8
:10AFD0006E0D0A0001A0FDF767BA000043414E3232
:10AFE0004D61737465725F6F7065726174696F6EC5
:10AFF000616C0D0A0000000070B5154A05460C464C
:10B000001278012A0FD013480078012817D00521A3
:10B0100028460BF077F810A0FDF746FA19A0BDE816
:10B020007040FDF741BA1B480078012805D0052182
:10B0300028460BF067F818A0F1E722A000E02BA04B
:10B04000FDF732FA21462846BDE8704002F046BCC2
:10B050000300001006000010434355322043414EC8
:10B06000322050726F74206973204E6F74204F70BD
:10B0700072656174652043414E3220425553202150
:10B080000D0A00007768682063616E32206161619B
:10B090000D0A000005000010434355312043414E86
:10B0A000322050726F74206973204E6F74204F707D
:10B0B00072656174652043414E3220425553202110
:10B0C0000D0A0000434355312043414E324D617318
:10B0D0007465725F706F73745F536C617665426FF5
:10B0E0006F7475702025780D0A00000043435532B7
:10B0F0002043414E324D61737465725F706F73749B
:10B100005F536C617665426F6F7475702025780DA2
:10B110000A00000010B5044C04A02168FDF7C4F932
:10B120002068401C206010BDA847001043414E32EB
:10B130004D61737465725F706F73745F5450444FE8
:10B14000204D617374657253796E63436F756E74CD
:10B15000203D202564200D0A0000000070B5140B6E
:10B16000C2F303251348FDF79FF90023012012497C
:10B17000124A012C0ED0022C0CD0042C12D0052C1B
:10B1800010D0012D0DD10E4902230E4A0C78012C4E
:10B190000DD104E0012D04D10C78012C01D10B70EC
:10B1A000107070BD012DFCD11478012CF9D10870FC
:10B1B000137070BD9C7E0108010000100200001099
:10B1C000050000100600001001A0FDF76DB9000099
:10B1D00043414E324D61737465725F706F73745F7B
:10B1E00073796E630D0A000001A0FDF75DB90000E0
:10B1F00043414E324D61737465725F7072654F707A
:10B2000065726174696F6E616C0D0A0001A0FDF7D3
:10B210004BB9000043414E324D61737465725F73E8
:10B22000746F707065640D0A0000000070B5264CE4
:10B2300086B00421204600F0D1F918B1042120463F
:10B2400000F014F90821204600F0C8F918B10821CF
:10B25000204600F00BF90221204600F0BFF901283A
:10B2600030D10221204600F001F96A460021204633
:10B2700000F084FA154C226A1046521C642A00D34E
:10B280000022134900EB400001EB80010098088088
:10B290009DF80900022807D0002088709DF80A0058
:10B2A000C87000206B4606E00120F6E71D180E1856
:10B2B000ED7A3571401CCD788542F7D82262A068BE
:10B2C000401CA06006B070BD00680040A0000010E7
:10B2D0009820012010B50C4604A0FDF7E5F82146A2
:10B2E000BDE8104007A0FDF7DFB800004343554C10
:10B2F0006564204865617274204572726F72210D19
:10B300000A00000043414E334D61737465725F68FB
:10B3100065617274626561744572726F7220256432
:10B320000D0A000001A0FDF7BFB8000043414E33F5
:10B330004D61737465725F696E697469616C69737C
:10B340006174696F6E0D0A0001A0FDF7ADB80000D1
:10B3500043414E334D61737465725F6F7065726106
:10B3600074696F6E616C0D0A0000000070B50546CF
:10B370000C4607A0FDF798F8052128460AF0C2FE02
:10B3800021462846BDE87040012208F056BF000063
:10B3900043414E334D61737465725F706F73745FB8
:10B3A000536C617665426F6F7475702025780D0A55
:10B3B0000000000010B5044C04A02168FDF774F8EB
:10B3C0002068401C206010BD8098002043414E330F
:10B3D0004D61737465725F706F73745F5450444F46
:10B3E000204D617374657253796E63436F756E742B
:10B3F000203D202564200D0A000000000148FDF7D3
:10B4000053B800009C7E010801A0FDF74DB8000074
:10B4100043414E334D61737465725F706F73745F37
:10B4200073796E630D0A000001A0FDF73DB80000BE
:10B4300043414E334D61737465725F7072654F7036
:10B4400065726174696F6E616C0D0A0001A0FDF791
:10B450002BB8000043414E334D61737465725F73C6
:10B46000746F707065640D0A0000000030B5082329
:10B4700010240422B1F5007F1DD010DC202929D032
:10B4800007DC012921D0042922D0082900D1C46079
:10B4900030BD402920D0B1F5807FF9D10BE00025E7
:10B4A000B1F5004F06D008DCB1F5806F03D0B1F5DF
:10B4B000006FEDD18561426030BDB1F5803F0DD0A8
:10B4C000B1F5003FF8D1446030BD0549816030BD21
:10B4D000C36030BD036130BD046130BD436030BD29
:10B4E00001010100094910B588424FF0010101D165
:10B4F0004C0601E04FF08064204606F0FBFD20463C
:10B50000BDE81040002106F0F5BD000000640040D9
:10B51000F0B5827A2F4D012191402A6842F0010254
:10B520002A602C4E1C3632688A433260294A047BDA
:10B53000294B0C32A4B914688C4314604488C78822
:10B5400044EA0744877A03EBC707C7F840460488F4
:10B55000878844EA0744877A03EBC707C7F844465D
:10B56000047B012C12D114680C431460847A0268A5
:10B5700003EBC4044FEA3242C4F84026847A42689E
:10B5800003EBC4034FEA3242C3F84426114AC37A9C
:10B59000121D002B136806D00B4313600D4A03895C
:10B5A000143213B104E08B43F7E713688B43136045
:10B5B0000389012B02D113680B431360407B0128E0
:10B5C00002D1306808433060286820F0010028600C
:10B5D000F0BD000000660040006000400246002010
:10B5E00053690B424AD0B1F5807F3BD013DC082968
:10B5F0002ED007DC012926D0022927D004293DD1ED
:10B60000D0682BE0102925D0202926D0402935D11B
:10B610001069102130E0B1F5004F2BD00BDCB1F5F3
:10B62000007F22D0B1F5806F22D0B1F5006F25D117
:10B630009069702120E0B1F5803F11D0B1F5003F55
:10B640001CD15068E5E790680D4915E0D06802E02C
:10B65000D068DEE7106903210EE0106908210BE0D5
:10B660005068FBE79069012106E09069022103E040
:10B67000906900E05068042102F0F4B870470000BF
:10B6800001010100002A426901D00A4300E08A4317
:10B690004261704710B50368002223F00203036083
:10B6A000036843F0010303604FF6FF7300E0521C90
:10B6B0004468E40701D19A42F9D14268D2073ED0EA
:10B6C0008A79012A02683CD022F080020260CA799D
:10B6D000012A026838D022F0400202600A7A012A68
:10B6E000026834D022F0200202604A7A012A0268FD
:10B6F00030D022F0100202608A7A012A02682CD02F
:10B7000022F008020260CA7A012A026828D022F0D8
:10B71000040202608A78CC78920742EA04620C79CB
:10B7200042EA04424C79098842EA0452491E0A431B
:10B73000C261016821F001010160002114E00020D4
:10B7400010BD42F08002C1E742F04002C5E742F07E
:10B750002002C9E742F01002CDE742F00802D1E72B
:10B7600042F00402D5E7491C4268D20701D0994251
:10B77000F9D14068C007E2D1012010BD10B500EB3F
:10B780000113D3F8B04114F004041472D3F8B0419B
:10B7900033D0E4085460D3F8B04104F0020454728A
:10B7A000D3F8B44104F00F049472D3F8B441240ADE
:10B7B000D474D3F8B841D472D3F8B841240A1473BE
:10B7C000D3F8B841240C5473D3F8B841240E9473C1
:10B7D000D3F8BC41D473D3F8BC41240A1474D3F811
:10B7E000BC41240C5474D3F8BC311B0E937439B192
:10B7F000016941F02001016110BD640D1460CAE7C8
:10B80000C16841F02001C16010BD000009490A680B
:10B8100042F001020A600A6843F60E739A430A6016
:10B820000A6842EA00200860086820F00100086009
:10B83000704700000066004000218171C1710172F3
:10B8400041728172C1728170C17003210171022144
:10B85000417101210180704730B502460020936894
:10B860005B0108D49068000101D5012003E09068D5
:10B87000C00037D5022002EB0012D2F8803103F06D
:10B880000103C2F880310B7A73B3D2F880414D685E
:10B890001C434B7A43EAC5031C43C2F880418B7AB0
:10B8A00003F00F038B72D2F8843123F00F03C2F838
:10B8B0008431D2F884318C7A2343C2F88431CB7A34
:10B8C000CC6843EA0423C2F88831CB7B096943EA98
:10B8D0000121C2F88C11D2F8801141F00101C2F8A7
:10B8E000801130BD042030BDD2F880314C7A234322
:10B8F0000C8843EA4453C2F88031D0E730B50024C5
:10B9000041F23865431B1460A84260D060DC41F20C
:10B910004D45A0EB0503A8425BD077DC41F2224500
:10B92000A0EB0503A84256D04EDC41F20C45A0EB3B
:10B930000503A84250D038DC41F20143A0EB0305D7
:10B9400098424AD027DC41F21705A0EB0503A84234
:10B950007ED014DC41F21403A0EB0302984278D0AD
:10B9600008DCB0F5805F75D06FF48052D04272D1A0
:10B97000012039E2012A6FD0022AF8D139E2012BE5
:10B980006BD0A3F58073E93B68D0802B67D0B3F50B
:10B99000007FECD138E20B2D5DD2DFE805F05CB41E
:10B9A000B3B2B1B0AFAEADACAB00162BF4D2DFE8A2
:10B9B00003F052BFBEBDBCBBBAB9B8B7B6B5B4B3DD
:10B9C000B2B1B0AFAEADACAB2B2BE5D206E0CEE35F
:10B9D0007DE01EE31AE05BE22EE217E2DFE803F00F
:10B9E0003BD4D3D2D1D0CFCECDCCCBCAC9C8C7C619
:10B9F000C5C4C3C2C1C0BFBEBDBCBBBAB9B8B7B66F
:10BA0000B5B4B3B2B1B0AFAEADACAB00B3F5E07F9F
:10BA100069D041DC162B67D00DDCBDD2DFE803F026
:10BA20001BCBCAC9C8C7C6C5C4C3C2C1C0BFBEBD7F
:10BA3000BCBBBAB9B8B740F2B512A3F2B510934285
:10BA400053D01FDC1C2B51D011DCA3F1170307E0EE
:10BA5000D1E1CAE1C7E1F8E0C9E1CFE1D0E1D1E14C
:10BA6000052B99D2DFE803F0E6E5E4E3E2001D2BC5
:10BA70003DD01E2B3CD0A3F58073B33B39D0012BB6
:10BA800087D106E30B2887D2DFE800F0DFDEDDDCBC
:10BA9000DBDAD9D8D7D6D500A3F2C1132A2B85D2A9
:10BAA000DFE803F0FDFCFBFAF9F8F7F6F5F4F3F242
:10BAB000F1F0EFEEEDECEBEAE9E8E7E6E5E4E3E2EE
:10BAC000E1E0DFDEDDDCDBDAD9D8D7D6D5D440F64D
:10BAD000DD15A3F6DD10AB422BD02BDC2C2B54D084
:10BAE00054DC9AD268E0ECE2BFE2D4E2C9E2CAE2F6
:10BAF000CBE2CCE29EE19BE198E195E192E18FE11E
:10BB00008CE189E186E183E1C0E1BDE1BAE1B7E121
:10BB1000B4E1B1E1AEE1ABE1A8E1A5E1A2E19FE1D1
:10BB20009CE199E196E193E190E18DE18AE187E181
:10BB300084E1EFE3EBE06AE267E264E261E25EE2A5
:10BB40005BE258E255E252E24FE24CE249E246E261
:10BB500043E240E23DE23AE237E234E231E22EE211
:10BB60002BE228E225E222E21FE21CE219E216E2C1
:10BB700013E210E20DE20AE207E204E201E2FEE172
:10BB8000FBE1F8E1F5E1F2E184E14BE32CE06AE26C
:10BB900067E264E261E25EE25BE258E255E252E2B1
:10BBA0004FE24CE249E246E243E240E23DE23AE261
:10BBB00037E234E231E22EE2DFE803F047DBDAD9A4
:10BBC000D8D7D6D5D4D3D2D1D0CFCECDCCCBCAC96D
:10BBD000C8C7C6C5C4C3C2C1C0BFBEBDBCBBBAB95D
:10BBE000B8B7B6B5B4B3B2B140F6C815A3F6C8102D
:10BBF000AB4270D07CDC40F2CB15A3F2CB10AB4251
:10BC00006BD052DC322B69D008DCA3F12D03052B5D
:10BC10001BD2DFE803F0B9B8B7B6B500332B79D043
:10BC2000B3F5E47F77D0A3F5807339E027E224E20F
:10BC300021E21EE21BE242E23FE23CE239E236E26E
:10BC400033E230E22DE22AE227E266E08DE28AE288
:10BC500087E284E281E27EE27BE278E275E272E2F0
:10BC60006FE26CE269E266E263E260E25DE25AE2A0
:10BC700057E254E251E24EE24BE248E245E242E250
:10BC80003FE23CE239E236E233E230E22DE22AE200
:10BC900027E224E221E21EE21BE218E215E212E2B0
:10BCA000C93B39D0012B38D1D4E240F2FF15A0F2C4
:10BCB000FF13A84232D012DC03285BD004DC012839
:10BCC00059D00228EFD1D1E2A0F58070FD3853D0D1
:10BCD0000128E8D1D4E2DFE20AE0BFE2AEE2012BC4
:10BCE0004BD0022B4AD0032B49D0042BDBD1D1E21D
:10BCF00015288DD2DFE800F011E3E2E1E0DFDEDDC0
:10BD0000DCDBDAD9D8D7D6D5D4D3D2D1D0005728D6
:10BD1000EFD23AE094E295E298E227E1B2E27FE2E4
:10BD20007CE279E276E273E270E26DE26AE267E277
:10BD300064E261E25EE25BE258E255E252E24FE227
:10BD40004CE246E243E240E23DE23AE237E234E2EC
:10BD500031E22EE22BE228E225E222E21FE21CE29F
:10BD600019E216E213E210E20DE20AE207E204E24F
:10BD700001E2FEE17EE275E280E285E286E287E2B0
:10BD80005AE257E254E251E24EE2DFE800F0EFEE11
:10BD9000EDECEBEAE9E8E7E6E5E4E3E2E1E0DFDE4B
:10BDA000DDDCDBDAD9D8D7D6D5D4D3D2D1D0CFCE3B
:10BDB000CDCCCBCAC9C8C7C6C5C4C3C2C1C0BFBE2B
:10BDC000BDBCBBBAB9B8B7B6B5B4B3B2B1B0AFAE1B
:10BDD000ADACABAAA9A8A7A6A5A4A3A2A1A09F9E0B
:10BDE0009D9C9B9A99000020FFE10220FDE1032029
:10BDF000FBE10420F9E10520F74B25E20620F4E100
:10BE00000720F2E10820F0E10920EEE10A20FEE33C
:10BE10000B20FCE30C20FAE30D20F8E30E20F6E300
:10BE20000F20F4E31020F2E31120F0E31220EEE300
:10BE30001320ECE31420EAE31520E8E31620E6E300
:10BE40001720E4E31820E2E31920E0E31A20DEE300
:10BE50001B20DCE31C20DAE31D20D8E31E20D6E300
:10BE60001F20D4E32020D2E32120D0E32220CEE300
:10BE70002320CCE32420CAE32520C8E32620C6E300
:10BE80002720C4E32820C2E32920C0E32A20BEE300
:10BE90002B20BCE32C20BAE34FE249E244E23EE22D
:10BEA00039E233E22EE229E224E21FE21AE215E24D
:10BEB00010E20CE207E202E2FDE1F8E1F3E1EFE17A
:10BEC000EBE3E5E3E0E3DAE3D4E3CEE3C8E3C3E3A3
:10BED000A2E39AE396E392E38EE38AE386E382E3C6
:10BEE0007EE37AE376E372E36EE368E363E35DE3C4
:10BEF00057E351E34BE345E33FE339E333E32EE319
:10BF000028E322E31CE316E310E30AE304E3FFE281
:10BF1000F9E2F3E2EDE2E7E2E1E2DBE2D5E2D0E2F0
:10BF2000CAE2C4E2BEE2B8E2B2E2ACE2A6E2A1E258
:10BF30009BE295E28FE289E283E27DE277E271E2C1
:10BF40006BE266E260E25AE254E24EE248E242E22A
:10BF50003CE237E231E22BE225E21FE219E213E292
:10BF60000DE208E202E2FCE1F6E1F0E19AE32D20C5
:10BF70004DE32E204BE32F2049E3302047E33120CF
:10BF800045E3322043E3332041E334203FE33520CF
:10BF90003DE336203BE3372039E3382037E33920CF
:10BFA00035E33A2033E33B2031E33C202FE33D20CF
:10BFB0002DE33E202BE33F2029E3402027E34120CF
:10BFC00025E3422023E3432021E344201FE34520CF
:10BFD0001DE346201BE3472019E3482017E34920CF
:10BFE00015E34A2013E34B2011E34C200FE34D20CF
:10BFF0000DE34E200BE34F2009E3502007E35120CF
:10C0000005E3522003E3532001E35420FFE25520CF
:10C01000FDE25620FBE25720F9E25820F7E25920D2
:10C02000F5E25A20F3E25B20F1E25C20EFE25D20D2
:10C03000EDE25E20EBE25F20E9E26020E7E26120D2
:10C04000E5E26220E3E26320E1E26420DFE26520D2
:10C05000DDE26620DBE26720D9E26820D7E26920D2
:10C06000D5E26A20D3E26B20D1E26C20CFE26D20D2
:10C07000CDE26E20CBE26F20C9E27020C7E27120D2
:10C08000C5E27220C3E27320C1E27420BFE27520D2
:10C09000BDE27620BBE27720B9E27820B7E27920D2
:10C0A000B5E27A20B3E27B20B1E27C20AFE27D20D2
:10C0B000ADE27E20ABE27F20A9E28020A7E28120D2
:10C0C000A5E28220A3E28320A1E284209FE28520D2
:10C0D0009DE286209BE2872099E2882097E28920D2
:10C0E00095E28A2093E28B2091E28C208FE28D20D2
:10C0F0008DE28E208BE28F2089E2902087E29120D2
:10C1000085E2922083E2932081E294207FE29520D1
:10C110007DE296207BE2972079E2982077E29920D1
:10C1200075E29A2073E29B2071E29C206FE29D20D1
:10C130006DE29E206BE29F2069E2A02067E2A120D1
:10C1400065E2A22063E2A32061E2A4205FE2A520D1
:10C150005DE2A6205BE2A72059E2A82057E2A920D1
:10C1600055E2AA2053E2AB2051E2AC204FE2AD20D1
:10C170004DE2AE204BE2AF2049E2B02047E2B120D1
:10C1800045E2B22043E2B32041E2B4203FE2B520D1
:10C190003DE2B6203BE2B72039E2B82037E2B920D1
:10C1A00035E2BA2033E2BB2031E2BC202FE2BD20D1
:10C1B0002DE2BE202BE2BF2029E2C02027E2C120D1
:10C1C00025E2C22023E2C32021E2C4201FE2C520D1
:10C1D0001DE2C6201BE200000C030010C72016E27F
:10C1E000C82014E2C92012E2CA2010E2CB200EE2DD
:10C1F000CC200CE2CD200AE2CE2008E2CF2006E2DD
:10C20000D02004E2D12002E2D22000E2D320FEE1DD
:10C21000D420FCE1D520FAE1D620F8E1D720F6E1E0
:10C22000D820F4E1D920F2E1DA20F0E1DB20EEE1E0
:10C23000DC20ECE1DD20EAE1DE20E8E1DF20E6E1E0
:10C24000E020E4E1F74BE1201360E0E1F54BE22070
:10C250001C33F9E7F34BE3203833F5E7F14BE420E7
:10C260005433F1E7EF4BE5207033EDE7ED4BE6207B
:10C270008C33E9E7EB4BE720A833E5E7E820C6E19C
:10C28000E920C4E1EA20C2E1EB20C0E1EC20BEE1FC
:10C29000ED20BCE1EE20BAE1E24BEF20C433D3E75E
:10C2A000F020E14BD0E7E04BF1201B1DCCE7DE4B4B
:10C2B000F2200833C8E7DC4BF3200C33C4E7D94B3A
:10C2C000F420E033C0E7D74BF520FC33BCE7F62081
:10C2D000D64BB9E7D54BF7202033B5E7D34BF82041
:10C2E0004033B1E7D14BF9205033ADE7CF4BFA20C3
:10C2F0006033A9E7CD4BFB207033A5E7CB4BFC2087
:10C300008033A1E7C94BFD2090339DE7C74BFE204A
:10C31000A03399E716E0C54BFF20C43394E7C34B25
:10C320004FF48070E8338FE740F20110C04B8BE789
:10C33000BF4B4FF48170243386E7BD4B40F20310AE
:10C34000483381E7BA4B4FF482706C337CE7B84BCB
:10C3500040F20510903377E7B54B4FF48370B43358
:10C3600072E7B34B40F20710D8336DE7B04B4FF490
:10C370008470FC3368E740F20910AE4B64E7AD4BC4
:10C380004FF4857024335FE7AA4B40F20B1048331B
:10C390005AE7A84B4FF486706C3355E7A54B40F233
:10C3A0000D10903350E7A34B4FF48770B4334BE735
:10C3B000A04B40F20F10D83346E79E4B4FF48870E5
:10C3C000FC3341E740F211109B4B3DE79A4B4FF491
:10C3D0008970243338E7984B40F21310483333E721
:10C3E000954B4FF48A706C332EE7934B40F2151047
:10C3F000903329E7904B4FF48B70B43324E78E4B86
:10C4000040F21710D4331FE78B4B4FF48C70F83386
:10C410001AE740F21910894B16E7884B4FF48D70DC
:10C42000143311E7854B40F21B1034330CE7834B78
:10C430004FF48E70583307E7804B40F21D107C3369
:10C4400002E77E4B4FF48F709033FDE67B4B40F25A
:10C450001F10B433F8E6794B4FF49070C433F3E611
:10C46000764B40F22110E833EEE6744B4FF49170B6
:10C47000F833E9E640F22310714BE5E6704B4FF4D8
:10C4800092701C33E0E66E4B40F225104033DBE641
:10C490006B4B4FF493706433D6E6694B40F2271030
:10C4A0008033D1E6664B4FF49470A433CCE6644BF2
:10C4B00040F22910C033C7E6614B4FF49570E43366
:10C4C000C2E640F22B105F4BBEE65E4B4FF4967017
:10C4D0001C33B9E65B4B40F22D104033B4E6594BA8
:10C4E0004FF497705C33AFE6564B40F22F10803319
:10C4F000AAE6544B4FF49870A433A5E6514B40F292
:10C500003110C033A0E64F4B4FF49970E4339BE6F3
:10C5100040F233104C4B97E64B4B4FF49A70243358
:10C5200092E6494B40F2351048338DE6464B4FF4C6
:10C530009B70643388E6444B40F23710883383E6BF
:10C54000414B4FF49C70A4337EE63F4B40F23910D0
:10C55000C83379E63C4B4FF49D70EC3374E640F2FF
:10C560003B103A4B70E6394B4FF49E7024336BE628
:10C57000364B40F23D10403366E6344B4FF49F702B
:10C58000643361E6314B40F23F1088335CE62F4B59
:10C590004FF4A070A43357E62C4B40F24110C03347
:10C5A00052E62A4B4FF4A170E4334DE6274B40F29C
:10C5B0004310F43348E64FF4A270254B44E6244B75
:10C5C00040F2451024333FE64FF4A3701FE040F2E1
:10C5D00047101CE04FF4A47019E040F2491016E037
:10C5E0004FF4A57013E040F24B1010E04FF4A6702A
:10C5F0000DE040F24D100AE04FF4A77007E040F262
:10C600004F1004E04FF4A87001E040F251100C60AC
:10C61000104901EBC00030BD034B4FF4A97010333B
:10C6200012E600009839012010030010B03A0120F2
:10C63000BC3B0120DC3C0120FC3D0120183F0120D7
:10C64000344001203C4101203C4201204443012070
:10C65000544401205C67010840F25310134BF3E58A
:10C66000124B4FF4AA701B1DEEE5104B40F2551013
:10C670000833E9E50D4B4FF4AB700C33E4E50B4B9D
:10C6800040F257101033DFE54FF4AC70084BDBE598
:10C69000074B40F259100C33D6E5054B4FF4AD7003
:10C6A0001C33D1E503480860002030BD240300108E
:10C6B00088440120000002069F2803D1087808B1B1
:10C6C00001487047002070473000090630B500244B
:10C6D00041F23865431B1460A84260D060DC41F22F
:10C6E0004D45A0EB0503A8425BD077DC41F2224523
:10C6F000A0EB0503A84256D04EDC41F20C45A0EB5E
:10C700000503A84250D038DC41F20143A0EB0305F9
:10C7100098424AD027DC41F21705A0EB0503A84256
:10C720007ED014DC41F21403A0EB0302984278D0CF
:10C7300008DCB0F5805F75D06FF48052D04272D1C2
:10C74000012039E2012A6FD0022AF8D139E2012B07
:10C750006BD0A3F58073E93B68D0802B67D0B3F52D
:10C76000007FECD138E20B2D5DD2DFE805F05CB440
:10C77000B3B2B1B0AFAEADACAB00162BF4D2DFE8C4
:10C7800003F052BFBEBDBCBBBAB9B8B7B6B5B4B3FF
:10C79000B2B1B0AFAEADACAB2B2BE5D206E0CEE381
:10C7A0007DE01EE31AE05BE22EE217E2DFE803F031
:10C7B0003BD4D3D2D1D0CFCECDCCCBCAC9C8C7C63B
:10C7C000C5C4C3C2C1C0BFBEBDBCBBBAB9B8B7B691
:10C7D000B5B4B3B2B1B0AFAEADACAB00B3F5E07FC2
:10C7E00069D041DC162B67D00DDCBDD2DFE803F049
:10C7F0001BCBCAC9C8C7C6C5C4C3C2C1C0BFBEBDA2
:10C80000BCBBBAB9B8B740F2B512A3F2B5109342A7
:10C8100053D01FDC1C2B51D011DCA3F1170307E010
:10C82000D1E1CAE1C7E1F8E0C9E1CFE1D0E1D1E16E
:10C83000052B99D2DFE803F0E6E5E4E3E2001D2BE7
:10C840003DD01E2B3CD0A3F58073B33B39D0012BD8
:10C8500087D106E30B2887D2DFE800F0DFDEDDDCDE
:10C86000DBDAD9D8D7D6D500A3F2C1132A2B85D2CB
:10C87000DFE803F0FDFCFBFAF9F8F7F6F5F4F3F264
:10C88000F1F0EFEEEDECEBEAE9E8E7E6E5E4E3E210
:10C89000E1E0DFDEDDDCDBDAD9D8D7D6D5D440F66F
:10C8A000DD15A3F6DD10AB422BD02BDC2C2B54D0A6
:10C8B00054DC9AD268E0ECE2BFE2D4E2C9E2CAE218
:10C8C000CBE2CCE29EE19BE198E195E192E18FE140
:10C8D0008CE189E186E183E1C0E1BDE1BAE1B7E144
:10C8E000B4E1B1E1AEE1ABE1A8E1A5E1A2E19FE1F4
:10C8F0009CE199E196E193E190E18DE18AE187E1A4
:10C9000084E1EFE3EBE06AE267E264E261E25EE2C7
:10C910005BE258E255E252E24FE24CE249E246E283
:10C9200043E240E23DE23AE237E234E231E22EE233
:10C930002BE228E225E222E21FE21CE219E216E2E3
:10C9400013E210E20DE20AE207E204E201E2FEE194
:10C95000FBE1F8E1F5E1F2E184E14BE32CE06AE28E
:10C9600067E264E261E25EE25BE258E255E252E2D3
:10C970004FE24CE249E246E243E240E23DE23AE283
:10C9800037E234E231E22EE2DFE803F047DBDAD9C6
:10C99000D8D7D6D5D4D3D2D1D0CFCECDCCCBCAC98F
:10C9A000C8C7C6C5C4C3C2C1C0BFBEBDBCBBBAB97F
:10C9B000B8B7B6B5B4B3B2B140F6C815A3F6C8104F
:10C9C000AB4270D07CDC40F2CB15A3F2CB10AB4273
:10C9D0006BD052DC322B69D008DCA3F12D03052B80
:10C9E0001BD2DFE803F0B9B8B7B6B500332B79D066
:10C9F000B3F5E47F77D0A3F5807339E027E224E232
:10CA000021E21EE21BE242E23FE23CE239E236E290
:10CA100033E230E22DE22AE227E266E08DE28AE2AA
:10CA200087E284E281E27EE27BE278E275E272E212
:10CA30006FE26CE269E266E263E260E25DE25AE2C2
:10CA400057E254E251E24EE24BE248E245E242E272
:10CA50003FE23CE239E236E233E230E22DE22AE222
:10CA600027E224E221E21EE21BE218E215E212E2D2
:10CA7000C93B39D0012B38D1D4E240F2FF15A0F2E6
:10CA8000FF13A84232D012DC03285BD004DC01285B
:10CA900059D00228EFD1D1E2A0F58070FD3853D0F3
:10CAA0000128E8D1D4E2DFE20AE0BFE2AEE2012BE6
:10CAB0004BD0022B4AD0032B49D0042BDBD1D1E23F
:10CAC00015288DD2DFE800F011E3E2E1E0DFDEDDE2
:10CAD000DCDBDAD9D8D7D6D5D4D3D2D1D0005728F9
:10CAE000EFD23AE094E295E298E227E1B2E27FE207
:10CAF0007CE279E276E273E270E26DE26AE267E29A
:10CB000064E261E25EE25BE258E255E252E24FE249
:10CB10004CE246E243E240E23DE23AE237E234E20E
:10CB200031E22EE22BE228E225E222E21FE21CE2C1
:10CB300019E216E213E210E20DE20AE207E204E271
:10CB400001E2FEE17EE275E280E285E286E287E2D2
:10CB50005AE257E254E251E24EE2DFE800F0EFEE33
:10CB6000EDECEBEAE9E8E7E6E5E4E3E2E1E0DFDE6D
:10CB7000DDDCDBDAD9D8D7D6D5D4D3D2D1D0CFCE5D
:10CB8000CDCCCBCAC9C8C7C6C5C4C3C2C1C0BFBE4D
:10CB9000BDBCBBBAB9B8B7B6B5B4B3B2B1B0AFAE3D
:10CBA000ADACABAAA9A8A7A6A5A4A3A2A1A09F9E2D
:10CBB0009D9C9B9A99000020FFE10220FDE103204B
:10CBC000FBE10420F9E10520F74B25E20620F4E122
:10CBD0000720F2E10820F0E10920EEE10A20ECE173
:10CBE0000B20EAE10C20E8E10D20E6E10E20E4E173
:10CBF0000F20E2E11020E0E11120DEE11220DCE173
:10CC00001320DAE11420D8E11520D6E11620D4E172
:10CC10001720D2E11820D0E11920CEE11A20CCE172
:10CC20001B20CAE11C20C8E11D20C6E11E20C4E172
:10CC30001F20C2E12020C0E12120BEE12220BCE172
:10CC40002320BAE12420B8E12520B6E12620B4E172
:10CC50002720B2E12820B0E12920AEE12A20ACE172
:10CC60002B20AAE12C20A8E14FE249E244E23EE277
:10CC700039E233E22EE229E224E21FE21AE215E26F
:10CC800010E20CE207E202E2FDE1F8E1F3E1EFE19C
:10CC9000EFE3EFE3EFE3EFE3E6E3E0E3DAE3D4E34C
:10CCA000CFE3C9E3C4E3A3E39DE397E392E38CE31B
:10CCB00086E380E37AE374E36EE368E363E35DE3D2
:10CCC00057E351E34BE345E33FE339E333E32EE33B
:10CCD00028E322E31CE316E310E30AE304E3FFE2A4
:10CCE000F9E2F3E2EDE2E7E2E1E2DBE2D5E2D0E213
:10CCF000CAE2C4E2BEE2B8E2B2E2ACE2A6E2A1E27B
:10CD00009BE295E28FE289E283E27DE277E271E2E3
:10CD10006BE266E260E25AE254E24EE248E242E24C
:10CD20003CE237E231E22BE225E21FE219E213E2B4
:10CD30000DE208E202E2FCE1F6E1F0E1AFE32D20D2
:10CD4000A8E32E20A6E32F20A4E33020A2E3312085
:10CD5000A0E332209EE333209CE334209AE3352085
:10CD600098E3362096E3372094E3382092E3392085
:10CD700090E33A208EE33B208CE33C208AE33D2085
:10CD800088E33E2086E33F2084E3402082E3412085
:10CD900080E342207EE343207CE344207AE3452085
:10CDA00078E3462076E3472074E3482072E3492085
:10CDB00070E34A206EE34B206CE34C206AE34D2085
:10CDC00068E34E2066E34F2064E3502062E3512085
:10CDD00060E352205EE353205CE354205AE3552085
:10CDE00058E3562056E3572054E3582052E3592085
:10CDF00050E35A204EE35B204CE35C204AE35D2085
:10CE000048E35E2046E35F2044E3602042E3612084
:10CE100040E362203EE363203CE364203AE3652084
:10CE200038E3662036E3672034E3682032E3692084
:10CE300030E36A202EE36B202CE36C202AE36D2084
:10CE400028E36E2026E36F2024E3702022E3712084
:10CE500020E372201EE373201CE374201AE3752084
:10CE600018E3762016E3772014E3782012E3792084
:10CE700010E37A200EE37B200CE37C200AE37D2084
:10CE800008E37E2006E37F2004E3802002E3812084
:10CE900000E38220FEE28320FCE28420FAE2852087
:10CEA000F8E28620F6E28720F4E28820F2E2892088
:10CEB000F0E28A20EEE28B20ECE28C20EAE28D2088
:10CEC000E8E28E20E6E28F20E4E29020E2E2912088
:10CED000E0E29220DEE29320DCE29420DAE2952088
:10CEE000D8E29620D6E29720D4E29820D2E2992088
:10CEF000D0E29A20CEE29B20CCE29C20CAE29D2088
:10CF0000C8E29E20C6E29F20C4E2A020C2E2A12087
:10CF1000C0E2A220BEE2A320BCE2A420BAE2A52087
:10CF2000B8E2A620B6E2A720B4E2A820B2E2A92087
:10CF3000B0E2AA20AEE2AB20ACE2AC20AAE2AD2087
:10CF4000A8E2AE20A6E2AF20A4E2B020A2E2B12087
:10CF5000A0E2B2209EE2B3209CE2B4209AE2B52087
:10CF600098E2B62096E2B72094E2B82092E2B92087
:10CF700090E2BA208EE2BB208CE2BC208AE2BD2087
:10CF800088E2BE2086E2BF2084E2C02082E2C12087
:10CF900080E2C2207EE2C3207CE2C4207AE2C52087
:10CFA00078E2C62076E20000944E0020C72071E2AD
:10CFB000C8206FE2C9206DE2CA206BE2CB2069E293
:10CFC000CC2067E2CD2065E2CE2063E2CF2061E293
:10CFD000D0205FE2D1205DE2D2205BE2D32059E293
:10CFE000D42057E2D52055E2D62053E2D72051E293
:10CFF000D8204FE2D9204DE2DA204BE2DB2049E293
:10D00000DC2047E2DD2045E2DE2043E2DF2041E292
:10D01000E0203FE2F94BE12013603BE2F74BE220D6
:10D020001C33F9E7F54BE3203833F5E7F34BE42005
:10D030005433F1E7F14BE5207033EDE7EF4BE62099
:10D040008C33E9E7ED4BE720A833E5E7E82021E260
:10D05000E9201FE2EA201DE2EB201BE2EC2019E2AE
:10D06000ED2017E2EE2015E2E44BEF20C433D3E7C6
:10D07000F020E34BD0E7E24BF1201B1DCCE7E04B67
:10D08000F2200833C8E7DE4BF3200C33C4E7DB4B58
:10D09000F420E033C0E7D94BF520FC33BCE7F620A1
:10D0A000D84BB9E7D74BF7202033B5E7D54BF8205D
:10D0B0004033B1E7D34BF9205033ADE7D14BFA20E1
:10D0C0006033A9E7CF4BFB207033A5E7CD4BFC20A5
:10D0D0008033A1E7CB4BFD2090339DE7C94BFE2069
:10D0E000A03399E716E0C74BFF20C43394E7C54B44
:10D0F0004FF48070E8338FE740F20110C24B8BE7AA
:10D10000C14B4FF48170243386E7BF4B40F20310CC
:10D11000483381E7BC4B4FF482706C337CE7BA4BE9
:10D1200040F20510903377E7B74B4FF48370B43378
:10D1300072E7B54B40F20710D8336DE7B24B4FF4AE
:10D140008470FC3368E740F20910B04B64E7AF4BE2
:10D150004FF4857024335FE7AC4B40F20B1048333B
:10D160005AE7AA4B4FF486706C3355E7A74B40F251
:10D170000D10903350E7A54B4FF48770B4334BE755
:10D18000A24B40F20F10D83346E7A04B4FF4887003
:10D19000FC3341E740F211109D4B3DE79C4B4FF4AF
:10D1A0008970243338E79A4B40F21310483333E741
:10D1B000974B4FF48A706C332EE7954B40F2151065
:10D1C000903329E7924B4FF48B70B43324E7904BA4
:10D1D00040F21710D4331FE78D4B4FF48C70F833A7
:10D1E0001AE740F219108B4B16E78A4B4FF48D70FB
:10D1F000143311E7874B40F21B1034330CE7854B97
:10D200004FF48E70583307E7824B40F21D107C3389
:10D2100002E7804B4FF48F709033FDE67D4B40F278
:10D220001F10B433F8E67B4B4FF49070C433F3E631
:10D23000784B40F22110E833EEE6764B4FF49170D4
:10D24000F833E9E640F22310734BE5E6724B4FF4F6
:10D2500092701C33E0E6704B40F225104033DBE661
:10D260006D4B4FF493706433D6E66B4B40F227104E
:10D270008033D1E6684B4FF49470A433CCE6664B10
:10D2800040F22910C033C7E6634B4FF49570E43386
:10D29000C2E640F22B10614BBEE6604B4FF4967035
:10D2A0001C33B9E65D4B40F22D104033B4E65B4BC6
:10D2B0004FF497705C33AFE6584B40F22F10803339
:10D2C000AAE6564B4FF49870A433A5E6534B40F2B0
:10D2D0003110C033A0E6514B4FF49970E4339BE614
:10D2E00040F233104E4B97E64D4B4FF49A70243377
:10D2F00092E64B4B40F2351048338DE6484B4FF4E5
:10D300009B70643388E6464B40F23710883383E6DF
:10D31000434B4FF49C70A4337EE6414B40F23910EE
:10D32000C83379E63E4B4FF49D70EC3374E640F21F
:10D330003B103C4B70E63B4B4FF49E7024336BE646
:10D34000384B40F23D10403366E6364B4FF49F7049
:10D35000643361E6334B40F23F1088335CE6314B77
:10D360004FF4A070A43357E62E4B40F24110C03367
:10D3700052E62C4B4FF4A170E4334DE6294B40F2BA
:10D380004310F43348E64FF4A270274B44E6264B93
:10D3900040F2451024333FE6234B4FF4A37034335F
:10D3A0003AE6214B40F24710583335E61E4B4FF416
:10D3B000A4707C3330E61C4B40F24910A0332BE6BE
:10D3C000194B4FF4A570C43326E6174B40F24B10AF
:10D3D000E83321E64FF4A670144B1DE6134B40F2E0
:10D3E0004D10503318E6114B4FF4A770743313E609
:10D3F0000E4B40F24F1098330EE60000C844012057
:10D40000984E0020E0450120EC4601200C48012008
:10D410002C490120484A0120644B01206C4C01201A
:10D420006C4D0120744E0120844F0120905001204A
:10D430004FF4A8701C4BEFE51B4B40F25110243306
:10D44000EAE54FF4A970194BE6E5184B40F253108A
:10D450001B1DE1E5154B4FF4AA700833DCE5134BB7
:10D4600040F255100C33D7E5104B4FF4AB7010332E
:10D47000D2E50DE009E005E0FFE70C4B40F2571064
:10D480001433C9E54FF4AC7004E040F2591001E0E8
:10D490004FF4AD700C60064901EBC00030BD05488B
:10D4A0000860002030BD00004C510120A84E002033
:10D4B00050720108000002069F2803D1087808B1C5
:10D4C00001487047002070473000090630B500243D
:10D4D0001460B0F5C05F45D01ADC41F21705A0EB2F
:10D4E0000503A84232D009DCB0F5805F28D06FF484
:10D4F0008052801826D013281ED125E0012B28D079
:10D50000A3F54073E93B26D0B3F5007F14D124E0A6
:10D51000B0F5005F31D009DC6FF4C053C01824D0DF
:10D52000B0EBD35025D0012806D124E06FF400538E
:10D53000C01826D0012828D017480860002030BD28
:10D54000002023E0012021E002201FE00320134BF4
:10D5500006E004201AE0052018E0104B06200833EE
:10D56000136013E007200E4BFAE70D4B08201C3325
:10D57000F6E709200AE00A2008E0094B0B203833BF
:10D58000EEE7064B0C201B1DEAE70D200C60054959
:10D5900001EBC00030BD000000000206808E0010CC
:10D5A000EC920010447D01089F2803D1087808B14F
:10D5B0000148704700207047300009061CB5012162
:10D5C000042004F07FFD01208DF8040000208DF878
:10D5D000060003218DF805108DF8070040200B4C44
:10D5E00000906946204600F07DFB8021009169464D
:10D5F000204600F077FB01224021204600F0CCFBC2
:10D6000001228021204600F0C7FB1CBD000802401B
:10D61000044910B50020086000F01CF8BDE8104077
:10D6200000F002B81C00001010B5FAF773FE0446B3
:10D630001021044801F085FA2046BDE81040FAF7B1
:10D640006DBE0000E3F4002001490860704700004F
:10D650001C00001010B5FCF749FC08490A6842F0AC
:10D6600080720A60064900224A600A6842F001029C
:10D670000A60BDE81040FFF7E7BF0000FCED00E0E6
:10D68000001000E00148406870470000001000E012
:10D69000584D594E594FDFF86881DFF86891DFF82F
:10D6A00068A1DFF868B1002459498878012802D0C0
:10D6B000022816D099E00878012803D0487801287C
:10D6C00006D092E02870887930705248817814E052
:10D6D000514A1070C879514908704E480F3081780E
:10D6E0004CE00878012803D0487801283ED07CE03F
:10D6F000287048484278327089793970C27888F841
:10D700000020027989F8002042798AF80020827985
:10D7100043498BF80020C2790A704249027A0A70A4
:10D720004149427A0A704149827A0A704049C27A74
:10D730000A70017B3F480170374804703748047015
:10D740003D4804703D4804703D4804703D480470F5
:10D750003D4804703D4804703D4804703D480470E5
:10D760003D4804703D4804703D483DE02A4A2B4B3B
:10D77000107028480F3042781A70C9792E4A1170FB
:10D780002E4AC17811702E4A017911702D4A4179C3
:10D7900011702D4A817911702C4AC17911702C4A6F
:10D7A000017A11702B4A417A11702B4A817A1170DB
:10D7B0002A4AC17A11702A49007B08702C70347093
:10D7C0003C7088F8004089F8004015488AF800400D
:10D7D0008BF8004004701348047013480470134819
:10D7E000047013480470134804703220FCF7C0FB27
:10D7F0005AE70000448E0010458E0010468E00103F
:10D800004B8E00104C8E00104D8E00104E8E00106E
:10D810000100001060A0002084980020859800205E
:10D820004F8E0010508E0010478E0010488E001052
:10D83000498E00104A8E0010869800208B98002098
:10D840008C9800208D9800208E9800208F980020C2
:10D8500090980020879800208898002089980020C0
:10D860008A980020024600200A4200D0012070471A
:10D8700004480368001D0268001D016802A0FAF751
:10D8800013BE0000107AFF1F435055203A20535416
:10D890004D3332463430375A4754362C204C51469B
:10D8A000503134342C20554944203D2025303858FF
:10D8B00020253038582025303858200D0A00000027
:10D8C00070B50C460546052108F01CFC214628468B
:10D8D000BDE87040012206F0B0BC000070B50546FE
:10D8E0000C4607A0FAF7E0FD0521284608F00AFCDF
:10D8F00021462846BDE87040012206F09EBC00008B
:10D900004D6173746572203A20436F6E6669677566
:10D910007265536C6176654E6F64652025322E32D8
:10D92000780D0A0030B40A46D0F8AC11D0F8B041F6
:10D930004FF0FF3351F8221024F81230C1F30741A1
:10D940000122431883F8C021D0F8BC2130BC104715
:10D950002DE9F04F9946DDE9094C4FF0FF3BDDF82A
:10D960002CA048E0ACEB02035BB20D78002B02DD8B
:10D9700005FA03F503E0C3F1000325FA03F5EEB25F
:10D9800002DDCCF1080301E0C2F10803DBB28342FF
:10D9900000D903460CEB03074FF0FF0808FA07F520
:10D9A000CCF1080C28FA0CF845EA080594F800C0F8
:10D9B000AE430CEA050C1A444CEA060CD2B284F8C9
:10D9C00000C0072A07D90022B9F1000F01D05D4637
:10D9D00000E00125294407F0FF0CBCF1070F08D92E
:10D9E0004FF0000CBAF1000F01D05D4600E00125B8
:10D9F0002C44C01AC0B20028B4D1BDE8F08F00009A
:10DA00000548006810F0815F04D003494FF0815051
:10DA100008310860704700000064024070B5084C8F
:10DA2000084D2146284600F027F8002806D0214658
:10DA3000284600F00BF804490120487070BD000032
:10DA400000800028B864024009000010074A904294
:10DA500001D2074801E005481038064A8B0001EA68
:10DA6000020101D5C16070478160704710640240B7
:10DA7000006002407D0F7D0F30B5104A00249042B7
:10DA800001D20F4A01E00D4A103A0E4B194205D05F
:10DA90001E2303EAD12503682B4002E0406900F011
:10DAA0008003880001D5506800E01068064A1040E5
:10DAB000084201D003B10124204630BD1064024069
:10DAC000006002403C0F3C0F7D0F7D0F0B0607D519
:10DAD000436912B143F0800301E023F08003436106
