:020000040800F2
:1080000018A40120A5820008E5280108FDD8000871
:108010009D2801086BAB0008F593010800000000E3
:108020000000000000000000000000002D6E0108AC
:1080300001D0000800000000D19B0008617C01080D
:10804000DF820008DF820008DF820008DF8200088C
:10805000DF820008DF820008DF820008DF8200087C
:10806000DF820008DF820008DF820008DF8200086C
:10807000DF820008DF8200085DCD0008DF82000893
:10808000DF820008DF820008DF820008DF8200084C
:1080900011AF0008DF820008DF82000815D6000853
:1080A000DF820008DF820008DF820008DF8200082C
:1080B000ED7C0108DF820008AD7D0108DF82000849
:1080C000DF820008E1DA0008D1DA0008DF82000868
:1080D000DF820008A9820108DF82000825830108E9
:1080E000DF820008DF820008DF820008DF820008EC
:1080F000DF820008DF820008DF82000869CD000807
:10810000DF820008DF820008157E0108DF82000898
:10811000DF820008DF820008DF820008BD7E0108E0
:10812000DF820008DF82000875CD0008DF820008CA
:10813000DF820008DF820008DF820008DF8200089B
:1081400031B20008DF820008DF820008DF82000809
:10815000DF820008DF820008ADCD0008DF82000862
:10816000DF820008DF820008DF820008DF8200086B
:10817000DF820008DF820008DF820008DF8200085B
:10818000DF820008DF82000800F002F800F07AF8D1
:108190000AA090E8000C82448344AAF10107DA4562
:1081A00001D100F06FF8AFF2090EBAE80F0013F03A
:1081B000010F18BFFB1A43F0010318473487010071
:1081C0007487010010F8013B0A4413F0030408BF50
:1081D00010F8014B1D1108BF10F8015B641E05D09B
:1081E00010F8016B641E01F8016BF9D1002D15D058
:1081F00010F8014B03F00C030C2BA1EB04040ABF95
:1082000010F8013BA4EB8314A4EB032405F1010354
:1082100014F8016B5B1E01F8016BF9D5914238BF70
:1082200010F8013BD1D3704700230024002500261D
:10823000103A28BF78C1FBD8520728BF30C148BFC9
:108240000B607047662915F08F83642900F09E81CA
:10825000782900F00282732900F0C9860020704757
:108260001FB515F07CFB9DE8030000F0F5FB00F066
:108270000BFF04000020002115F002F8E0601FBD94
:1082800010B510BD01F019F81146FFF7E9FF12F023
:108290001DFE01F037F803B4FFF7F2FF03BC11F045
:1082A000D7FD000011488047DFF84400016841F421
:1082B00070010160BFF34F8FDFF83800016821F0D3
:1082C00040410160BFF36F8F0B480047FEE7FEE7B8
:1082D000FEE7FEE7FEE7FEE7FEE7FEE7FEE7FEE776
:1082E00006480749074A084B70470000917C01087F
:1082F00088ED00E034EF00E089810008189E01203D
:1083000018A4012018A0012018A0012072B67047FF
:1083100062B67047EFF3108072B6704780F3108832
:10832000704730BF704720BF7047B0FA80F0704789
:1083300090FAA0F0B0FA80F0704790FAA0F0704781
:10834000704770B5064600F06BFB056806F10B0040
:1083500020F00704B4429CBF002070BD2B466A6821
:10836000BAB11068A04210D304F1080188423CBFA2
:108370005068586007D35168101941601168091B93
:10838000016058601460101D70BD13465268002AC9
:10839000E7D12146284600F04BFB0028DED170BD16
:1083A00070B50446051F00F03BFB0068002C14BFAD
:1083B000446870BD002C18BFAC423CBF20466468C6
:1083C000F8D301680A18AA4218BF456003D12A6889
:1083D00005461144016028684119A1421CBF6C6028
:1083E00070BD6168696021680844286070BD70B51F
:1083F0000D460646041F00F013FBD0F800C0C5B1BF
:10840000E6B105F10B0020F00703AB423CBF0020B2
:1084100070BD2068984238BFDCF8042013D3C11A1D
:1084200008292FD3E01840F8041B2360FFF7B8FF9A
:1084300028E03046FFF7B4FF002070BD2846BDE8B5
:108440007040FFF77EBF002A18BFA2423CBF94468F
:108450005268F8D30119914216D111680844984224
:1084600012D3C11A08293CBF2060506808D3516854
:10847000E0184160216812681144C91A0160236044
:10848000CCF80400201D70BD181FFFF75AFF05002F
:1084900007D021680A1F211D00F0C0FD201DFFF735
:1084A0007FFF284670BD00000FB4044910B503AA31
:1084B000029800F0A1FD10BC5DF814FB58000010FC
:1084C0000FB41CB5084B06AA7B446946009005987A
:1084D00000F063FD04460020694600F071FD20466F
:1084E0001CBC5DF814FB0000F50A000070B50446E2
:1084F00085690068C10601D5302600E02026C00746
:1085000007D070BDD4E9012130469047206A401C55
:1085100020626D1EF6D570BD70B504468569007881
:10852000C00707D170BDD4E9012120209047206AFF
:10853000401C20626D1EF6D570BD70B50C46054618
:10854000012A05D02878800600D5EA69002302E0D8
:10855000012305E05B1C934202D2E05C0028F9D1C4
:10856000A869E618C01AA861286A18442862284633
:10857000FFF7BCFF04E0D5E9012114F8010B904797
:10858000B442F8D32846FFF7C7FF70BD2DE9F0418C
:108590000646002410687529314616A510D0AFF3A1
:1085A0000080002802DA404213A507E031688A07FC
:1085B00001D512A502E0490704D511A5012401E067
:1085C000AFF3008000210A2206F1240709E0B0FB86
:1085D000F2FCB0FBF2F302FB1C003030785418467A
:1085E000491C0028F3D123462A463046BDE8F04115
:1085F00000F068BA000000002D0000002B00000011
:1086000020000000F0B40D460188090502D5214C78
:108610007C4402E01F4C7C440E34002100F124060F
:1086200008E002F00F071209E75D42EA03721B0936
:108630007754491C52EA0307F3D10278002312074A
:1086400004D5702D06D009B1022311342246F0BCA6
:1086500000F038BA01231034F8E770B504460D462F
:1086600021461068AFF30080024629462046BDE847
:1086700070400023C6E7D21D22F00703D3E9002390
:10868000C0E70368126843F0200303600823C36156
:108690000023B7E78E8101002DE9F05F894604468B
:1086A0004FF0000ADFF874B1FB44C0F820A0204668
:1086B000E1688847002874D0252806D0D4E9012134
:1086C0009047206A401C2062F1E700265F46204662
:1086D000E16888472028054607DB312D05D2781947
:1086E00010F8200C08B10643F1E7B00701D526F0D9
:1086F0000406C4F81CA00027C4F818A02A2D09D02D
:10870000284611F069FA38B304EB8708303DC8F801
:10871000185019E059F8041B204604EB87029161B8
:10872000E1688847012F054618D1E069002820DA62
:1087300026F020061DE0D8F8180000EB800005EBBD
:1087400040003038C8F818002046E16888470546E0
:1087500011F042FA0028EED1012F0AD02E2D08D1B7
:108760002046E16888477F1C0546022F46F0200618
:10877000C4DBA069002803DA404246F00106A0618C
:10878000F00701D026F010066C2D0BD0682D09D013
:108790004C2D39D06A2D35D0742D35D07A2D33D06B
:1087A00016E038E0E1682F4620468847B842054683
:1087B00009D16C2F26D04FF48060E1680643204633
:1087C0008847054604E06C2F1AD04FF480700643AA
:1087D0000DB3A5F14100192802D8203546F40066F2
:1087E0004A462946204626604E46FFF72BFD80B1BB
:1087F00001280BD0F61D26F0070000F1080956E706
:108800004020E4E78020D8E70020D6E706F10409FD
:108810004DE7284652E7206ABDE8F09F1E8101001F
:1088200040EA010310B59B070FD1042A0DD310C8ED
:1088300008C9121F9C42F8D020BA19BA884201D93F
:10884000012010BD4FF0FF3010BD1AB1D30703D087
:10885000521C07E0002010BD10F8013B11F8014B3D
:108860001B1B07D110F8013B11F8014B1B1B01D159
:10887000921EF1D1184610BD40EA0103024630B500
:108880009B0710D14FF0013400E008C208C91D1B3E
:108890009D4315EAC41FF8D013F0FF0102F8011B35
:1088A0000DD01B0AF8E711F8013B002B02F8013B41
:1088B00005D011F8013B002B02F8013BF3D130BD8C
:1088C000032A40F2308010F0030C00F0158011F8FC
:1088D000013BBCF1020F624498BF11F801CB00F8D4
:1088E000013B38BF11F8013BA2F1040298BF00F828
:1088F00001CB38BF00F8013B11F0030300F08E8379
:10890000083AC0F0088051F8043B083A51F804CB0B
:10891000A0E80810F5E7121D5CBF51F8043B40F8D1
:10892000043BAFF30080D20724BF11F8013B11F8DC
:1089300001CB48BF11F8012B24BF00F8013B00F820
:1089400001CB48BF00F8012B70474FF0000200B583
:10895000134694469646203922BFA0E80C50A0E862
:108960000C50B1F12001BFF4F7AF090728BFA0E810
:108970000C5048BF0CC05DF804EB890028BF40F8DC
:10898000042B08BF704748BF20F8022B11F0804F1E
:1089900018BF00F8012B70474FF0013C50F8042B32
:1089A00051F8043B9A4221D1A2EB0C03934313EA02
:1089B000CC1317D150F8042B51F8043B9A4215D12F
:1089C000A2EB0C03934313EACC130BD150F8042B06
:1089D00051F8043B9A4209D1A2EB0C03934313EAEA
:1089E000CC13DBD04FF00000704700BFD01A01BAA3
:1089F000B1FA81F101F0180122FA01F0CB40C1F186
:108A00002001DBB2C0B2C01A2CFA01F3D11A914393
:108A100011EAC311E6D1704770477047704770473D
:108A20000048704730A30010704770477047704788
:108A300038B504460A4600206946AFF30080002896
:108A400008BF38BD02460099204600F021FB0120F6
:108A500038BD012000F02ABCF8B5AFF30080054610
:108A600000200C46102000BF0646A819A0420DD9D0
:108A7000324669460020AFF30080070008BF00F0CF
:108A800015FC0098A04218BF0546C419FFF7C8FF9F
:108A900005600746F01D20F007004619284600F043
:108AA0000AF8B44208BFF8BDA21B31463868BDE8D9
:108AB000F84000F0EDBA00210160C0E901107047F4
:108AC000102070472DE9F0470D469946924604461E
:108AD00000F124080168880604D5E06921F010013E
:108AE000216000E00120A84201DD471B00E00027D3
:108AF000A1697A1902EB0900081AA0612078C00662
:108B000002D42046FFF7F2FC002608E0D4E9012158
:108B10001AF806009047206A401C761C20624E45D9
:108B2000F4DB2078C0060AD52046FFF7DFFC06E01C
:108B3000D4E9012130209047206A401C2062381E71
:108B4000A7F10107F4DC07E0D4E9012118F80500DA
:108B50009047206A401C2062281EA5F10105F3DC25
:108B60002046FFF7D9FC2078000602D50220BDE898
:108B7000F0870120FBE770472DE9FF4F0C461E46AA
:108B80004FF0FF378BB0D2E90001DDF860800A902A
:108B90008A46C1F30A5505B93D46002108464FF003
:108BA0000000BAF1000F00F4400005DA00EB80008D
:108BB0004FF4400101EA50004FEA9059B9F1010F1A
:108BC00000DDB9460A9850EA4A000ED044F610502B
:108BD000A5F2FF3545432F14B8F1000F1ED07542A2
:108BE000291E1EDDC9F100021CE0B8F1010F4FF093
:108BF000000001D0302103E0F24305E02154401C85
:108C0000B042FBDB30460022002121540B99C1F811
:108C10000880C1E900200FB0BDE8F08FBD1B6D1CBE
:108C2000DEE74A4600DA694206A800F0D1FA06AB50
:108C300093E8070003AB83E8070050460A9900F069
:108C4000AEFB8DE80700A0F500501F380090039898
:108C5000002D09DD42F21F014A46084403A9039092
:108C6000684600F00DFE08E0A0F500504A461F38A7
:108C700003A90390684600F017FE8DE80700000482
:108C8000000C03D04FF0FF30410800E01046B8F16F
:108C9000000F03D00022009215461EE0751E05D479
:108CA00000F010FA303262556D1EF9D5B34601223C
:108CB000084302D000227F1C04E02078302801D134
:108CC00000227F1E002A099786D01DE0112D07DAA9
:108CD00000F0F8F9303262556D1C50EA0102F5D10E
:108CE000084302D00098C8B10EE00021681E05E0DC
:108CF000235C625C63542254401E491C8142F7DBB2
:108D0000AB46A81B401E0990002004F80B000B98EE
:108D1000099AC0F80880C0E9002B7CE711264FF0C3
:108D2000000859E72DE9F04F88460446D21D22F08D
:108D3000070191B0D1E90001CDE90A0110F0C5FEAB
:108D400002460B98C00F01D02D2007E02068810754
:108D500001D52B2002E0202101EAC000032A09905E
:108D600001D0072A05DB03464146204600F0F0F912
:108D70000BE12078800601D5E06900E00620B8F11B
:108D8000650F814606D0B8F1660F18D0B8F1670FAD
:108D900070D131E00020B9F1110F009001DB1123F7
:108DA00001E009F101030AAA01A90CA8FFF7E4FEFA
:108DB000DDE90C70002609F10105834647E001203A
:108DC0004B4600904FF000470AAA01A90CA8FFF7F4
:108DD000D3FEDDE90DB00C995D46002610B909F10E
:108DE00001000D18B9EB050003D4C0F1FF3609F1FD
:108DF0000105A5EB09002BE0B9F1010F01DA4FF0F5
:108E000001090020B9F1110F0090484601DD11233E
:108E100000E003460AAA01A90CA8FFF7ADFEDDE9B0
:108E20000C704D4600268346207800070AD4AB45D7
:108E300000DA5D4601A8012D04DD411911F8011C7D
:108E4000302907D04F4502DA17F1040F04DA012068
:108E500082460FE06D1EEEE7002F02DCED1B3E4464
:108E600003E0781CA84200DD7D1CB81B00F1010A5C
:108E70004FF000472078000703D4AA4501DB4FF0EC
:108E8000FF3A0021B7F1004F0DF143088DF8431070
:108E900024D002202B23002F01DA7F422D230A2128
:108EA000021EA0F1010000DC5FB197FBF1FC97FB13
:108EB000F1F201FB1C7C17460CF1300C08F801CDD7
:108EC000EEE7A8F1010003702188090501D54521CD
:108ED00000E06521A0F1010800F8011C09980FA924
:108EE000A1EB0807FF1D00B10120411901EBEA7059
:108EF000A1693844081A401EA0612078C00602D437
:108F00002046FFF7F3FA099828B1D4E901219047E8
:108F1000206A401C20622078C00622D52046FFF738
:108F2000E5FA1EE0002E04DBB34502DD01A8805DFA
:108F300000E03020D4E901219047206A401C2062E3
:108F4000761CAAF101005FEA000A0AD100F09CF841
:108F5000C0680168405CD4E901219047206A401C48
:108F60002062281EA5F10105DCDC07E0D4E901211F
:108F700018F8010B9047206A401C2062381EA7F1A8
:108F80000107F3DC2046FFF7C7FA032011B043E6E0
:108F900001694A1C02610878704700B58FB0CDE9BD
:108FA00001310021059105497944CDE903101146AD
:108FB0006846FFF771FB0FB000BD0000E5FFFFFF43
:108FC0000A6802F8010B0A60704710B5436913B1D3
:108FD000AFF3008001E0FFF7B0FA012010BD127876
:108FE00000F124010A7000224A700122EDE71168A5
:108FF0004FF0FF32E9E70000074B70B50D467B44A8
:10900000FFF7CBFF0446284611F0DCFD10B14FF00E
:10901000FF3070BD204670BDCB1B010010B5203A5B
:10902000C0F00B80B1E81850203AA0E81850B1E821
:109030001850A0E81850BFF4F5AF5FEA027C24BFD7
:10904000B1E81850A0E8185044BF18C918C0BDE8CE
:1090500010405FEA827C24BF51F8043B40F8043B97
:1090600008BF7047D20728BF31F8023B48BF11F84C
:10907000012B28BF20F8023B48BF00F8012B7047A6
:109080000048704728A300100048704748A300100C
:10909000034640688C46002818BF88423CBF034600
:1090A0004068F8D318681844884207D00CF10300D0
:1090B00020F00700001D411A521A0146081D0A60DF
:1090C000FFF76EB930B5B0F10A024FEA900E71F1B8
:1090D00000034EEA817EB0EB0E0061EB91014FEA96
:1090E000101E4EEA017E10EB0E0041EB11114FEA0B
:1090F000102E4EEA016E10EB0E0041EB11214FEAEB
:10910000104E4EEA014E10EB0E0041EB114140189B
:1091100041F100014FEAD00040EA41704FEAD1012D
:1091200010EB80054FEA810444EA907444EB01049B
:109130006D1944EB0404521BA3414FF0000348BFD8
:109140000A3200D530BD401C41F1000130BD0000A5
:109150002DE9F0411F46044603260168072A01F461
:10916000006004DB08B116A505E016A503E008B110
:1091700015A500E015A521F010002060A069C01E13
:10918000A0610FB1401EA0612046FFF7AFF94FB1BB
:10919000D4E9012138469047206A401C2062C01C57
:1091A000206206E0206AFAE7D4E9012115F8010BF4
:1091B0009047761EF8D22046FFF7AEF9BDE8F08161
:1091C0004E414E006E616E00494E4600696E66006B
:1091D0002DE9F047814616468AB0334878440DC8D9
:1091E0008DE80D0030487844801C03AC0DC884E83D
:1091F0000D0041F69B300844372190FBF1F290FBC3
:10920000F1F5A5F1800501FB12041B3C02D5644277
:10921000012000E00020DFF890A080460027FA44FB
:10922000AAF1BE0A0DE0E00709D03246684607EB16
:1092300047010AEB810100F037FB8DE8070064105D
:109240007F1C002CEFD1184F7F44AC3F18E0E8079B
:1092500014D007EB04100DF1180A90E80E008AE80C
:109260000E00C068F04201D198190890324606A954
:1092700003A800F019FB03AB83E807006D10641C22
:10928000002DE4D132466946B8F1000F03A802D0A0
:1092900000F0F6FA01E000F007FBC9E90001C9F8A7
:1092A00008200AB0BDE8F0877876010010B500F01C
:1092B00035F8BDE8104000F02BB87546FFF7E0FE2A
:1092C000AE4605006946534620F00700854618B0B3
:1092D00020B5FFF705F8BDE820404FF000064FF03D
:1092E00000074FF000084FF0000B21F00701AC46DB
:1092F000ACE8C009ACE8C009ACE8C009ACE8C009FA
:109300008D4670470446AFF300802046FEF7C3FF4A
:10931000002801D010F09CBD7047000010B5012856
:1093200005D0002103A000F021F8012010BD09A103
:10933000F8E7000053494752544D454D3A204F75C8
:1093400074206F662068656170206D656D6F72793D
:10935000000000003A2048656170206D656D6F72F5
:109360007920636F727275707465640070B505461C
:109370000C460A2000E06D1C10F06CFD35B1287819
:109380000028F8D102E0641C10F064FD14B12078CC
:109390000028F8D1BDE870400A2010F05BBD5FEAFC
:1093A000400C08BF91F0000F4FEA8C234FEAC12216
:1093B00043EA51514FEA1C5018BF00F5F0404FEA04
:1093C000300018BF41F000415FEA6C5C00F029807A
:1093D000BCF1FF3F08BF40F080407047130C06BF50
:1093E00012044FF0100C4FF0000C130E04BF1202C9
:1093F0000CF1080C130F04BF12010CF1040C930FB5
:1094000004BF92000CF1020CD30F04BF52000CF108
:10941000010C11464FF00002A0F11F00A0EB0C0060
:10942000704711F0004F08BF704731F000413FF422
:10943000D5AF0B0C06BF09044FF0100C4FF0000C19
:109440000B0E04BF09020CF1080C0B0F04BF09013D
:109450000CF1040C8B0F04BF89000CF1020CCB0F34
:1094600004BF49000CF1010CCCF12003A0EB0C006F
:1094700022FA03F302FA0CF241EA030100F10100BF
:10948000704720F07F4C80EA030023F07F47ACEB6D
:10949000070303F57C5300F0004003F1FF032DE9BF
:1094A00080494FEA154B09B44FEA144325EA0B4EA5
:1094B00024EA03480FF2042606EB132749083E78F6
:1094C0005FEA320203FB0667C7F5000707FB06F6F3
:1094D0004FEA54374FEAD64606F1020607FB066C00
:1094E000CCF1005C4FEA1C472CEA074C07FB06F462
:1094F0000CFB06F504EB15464FEA961634BF002028
:109500004FF000404FEAD13706FB07FC4FEA1C4CF6
:109510000CFB0BF7D21B03FB0CF761EB07010CFBF9
:109520000EF7B0EB074072EB17420CFB08F734BFA5
:10953000A2EB0742B2EB074261EB17414FEA0C4442
:109540004FEA910706FB07FC4FEA1C4C0CFB0BF79C
:10955000B0EBC74072EB573203FB0CF734BFA2EB02
:10956000C742B2EBC74261EB57310CFB0EF7B0EBD1
:10957000C70072EB57720CFB08F734BFA2EBC702AF
:10958000B2EBC70261EB5771039F4FEA816141EA79
:10959000921104EBCC044FEAD1374FEA826206FB0A
:1095A00007FC42EA90124FEA80604FEA1C4C0CFB29
:1095B0000BF7D21B03FB0CF761EB07010CFB0EF75B
:1095C000B0EB074072EB17420CFB08F734BFA2EB7D
:1095D0000742B2EB074261EB17414FEA8C554FEA65
:1095E000910704EB9C2406FB07FC4FEA1C4C0CFB88
:1095F0000BF7B0EBC74072EB573203FB0CF734BFED
:10960000A2EBC742B2EBC74261EB57310CFB0EF73E
:10961000B0EBC70072EB57720CFB08F734BFA2EB3C
:10962000C702B2EBC70261EB577115EB4C254FEA4D
:10963000816141EA92114FEA82624FEAD13742EAF0
:10964000901206FB07FC44F100044FEA80604FEAE9
:109650001C4C0CFB0BF7D21B03FB0CF761EB070157
:109660000CFB0EF7B0EB074072EB17420CFB08F750
:1096700034BFA2EB0742B2EB074261EB174115EB97
:109680001C154FEA813141EA92414FEA823242EAA7
:1096900090424FEA80304FEA0C7644F1000448EAE9
:1096A00003434EEA0B484FF0000EB2EB080C71EB8F
:1096B000030724BF624639464EEB0E0E4FF0000BF7
:1096C0000018524149414BEB0B0BB2EB080C71EB0C
:1096D00003077BF1000B24BF624639464EEB0E0EAA
:1096E0004FF0000B0018524149414BEB0B0BB2EB12
:1096F000080C71EB03077BF1000B24BF624639466F
:109700004EEB0E0E51EA020718BF46F0010616EBAB
:109710000E7655F1000254F1000103D5BDE8890130
:10972000BDE80088BDE88901BDE80048B61952418E
:1097300041EB0101A3F10103704780807F7E7D7CB6
:109740007B7A7978777676757473727171706F6ED3
:109750006E6D6C6C6B6A6A6968686766666564647E
:10976000636362616160605F5F5E5E5D5D5C5C5B08
:109770005B5A5A5959585857575656555555545477
:10978000535352525251515050504F4F4F4E4E4DD5
:109790004D4D4C4C4C4B4B4B4A4A4A494949484821
:1097A0004847474747464646454545444444444361
:1097B00043434342424242414141002B26D4770079
:1097C00021D01CB54FEA370703B44FF010004FF01B
:1097D00010014FF000000FBCBDE810400BF1010B71
:1097E000BBF1010F08BF5FEA170722BF12F10102A8
:1097F00011F101014FF0004143F1000300F000407E
:1098000043EA00007047F9D35708DAE746EA06460C
:1098100013F1400F4FEA16461FDD13F1200FDFBF93
:1098200016430A46002120335B42C8D0C3F120070B
:1098300046EA064602FA07F74FEA164646EA0706E0
:10984000C3F1200722FA03F201FA07F721FA03F124
:109850004FF0000342EA0702B1E746EA020646EA91
:1098600006464FEA164646EA0106BCBF46EA0646E9
:10987000360C4FF000034FF000024FF000019EE75E
:109880002DE9C048934630B491E8380007C831EA62
:10989000400C48BF34EA430C03D5FFF7F2FDFFF755
:1098A0008CFFF0BCBDE800882DE9C048934630B479
:1098B00091E8380007C810F0804F08BF13F0804FC0
:1098C00003D100F005F8FFF778FFF0BCBDE8008891
:1098D00020F07F4780EA030023F07F4C07EB0C0366
:1098E000A3F57C5300F00040A3F1FE0392F0000FBB
:1098F00000F0B38095F0000F00F077802DE901496A
:109900004FEA11404FEA144621EA004800FB06FCEA
:1099100024EA064708FB06F607FB08F800FB07F7F2
:1099200018EB06484CEB164C4FEA124B18EB074865
:109930004FEA15464CEB174022EA0B4E0BFB06FC98
:1099400025EA06470EFB06F607FB0EFE0BFB07F7A4
:109950001EEB064E4CEB164C4FF000061EEB074E6E
:109960004CEB174B18EB0B0840F1000018EB0E0BFB
:1099700058EB000840F100008F1A4FF000013CBF87
:10998000C943661B14BFB5EB040C00213CBFC9439F
:10999000F61B4FEA17444EEA8E0E27EA04454FEABB
:1099A0001C4704FB07622CEA074C05FB07F70CFB7E
:1099B00005F604FB0CFC16EB074642EB174216EBD0
:1099C0000C4642EB1C421BEB060658EB02024141DF
:1099D00046EA9E0601D5BDE80189B619524141EB20
:1099E0000101A3F10103BDE801894FEA14454FEAE3
:1099F000114724EA054621EA074C05FB07F406FB5C
:109A000007F70CFB06F105FB0CFC11EB074144EBDF
:109A100017444FEA124711EB0C4144EB1C4422EA75
:109A2000074C05FB07F206FB07F70CFB06F605FBE8
:109A30000CFC16EB074642EB174216EB0C4642EBCA
:109A40001C456A1854F1000148BF7047B6195241CD
:109A500041EB0101A3F10103704795F0000F37D0EE
:109A60004FEA11424FEA144721EA024624EA074C22
:109A700002FB07F106FB07F70CFB06F402FB0CFCEC
:109A800014EB074441EB17414FEA154714EB0C4424
:109A900041EB1C4125EA074C02FB07F506FB07F7E3
:109AA0000CFB06F602FB0CFC16EB074645EB1745D4
:109AB00016EB0C4645EB1C42121951F1000148BF50
:109AC0007047B619524141EB0101A3F10103704700
:109AD0004FEA14454FEA114724EA054621EA074CAC
:109AE00005FB07F106FB07F70CFB06F24FF000063B
:109AF00005FB0CFC12EB074241EB174112EB0C4249
:109B000051EB1C4148BF7047921841EB0101A3F192
:109B100001037047EFF3098141B1F1EE101A40F8EB
:109B2000041D20ED200A3E490A6810607047B0EC21
:109B3000200A02C8E1EE101A3A490A68106070471C
:109B400072B64EF62250CEF2000040F2FF01C0F293
:109B5000000101704FF0000080F309880AF010FB4B
:109B600040F28410C1F20000016881F3088840F2DD
:109B70004210C2F2000040F25211C1F200010A7814
:109B8000027040F28015C1F2000540F27411C2F279
:109B900000010A682A60106880F30988EFF31480D6
:109BA00040F0020080F31488BFF36F8FBDE8F00F20
:109BB0000FBCBDE8005006BC62B608471A484FF01B
:109BC00080510160704718484FF080510160704724
:109BD00072B6EFF3098020E9F00F40F28015C1F270
:109BE00000052E68306074460AF0CAFA40F242104E
:109BF000C2F2000040F25211C1F200010A78027074
:109C000040F27411C2F200010A682A6044F0F40EB6
:109C10001068B0E8F00F80F3098862B67047000062
:109C2000800100107401002004ED00E070B5464B87
:109C30004648C988464DA1F500521B788068103A05
:109C40004FF0000406D0182A41D042A0FEF72CFCA9
:109C5000002070BD4549032B4A68096804D0052BD4
:109C600013D0082B3BD121E0414B19605A60414B86
:109C700019605A60A0F884400721344812F0B2FFFE
:109C8000A8680721A0F8844059E03B4B19605A604E
:109C90003A4B19605A60A0F8964008212B4812F000
:109CA000A1FFA8680821A0F8964048E0344B19604D
:109CB0005A60344B19605A60A0F8A8400921234823
:109CC00012F090FFA8680921A0F8A84037E02E49BB
:109CD000032B097807D0052B14D0082B21D02BA0FB
:109CE000FEF7E2FBB4E72D4A11702D4A1170A0F87F
:109CF00086444021154812F075FFA8684021A0F85D
:109D000086441CE0274A1170274A1170A0F8984435
:109D100041210E4812F066FFA8684121A0F898443E
:109D20000DE0224A1170224A1170A0F8AA44422183
:109D3000064812F057FFA8684221A0F8AA44044838
:109D400012F050FF84E7000002000010E4470020FA
:109D500064920020414343204572722025237820DD
:109D6000D3B3C9E4BAC5210D0A000000CA830010AC
:109D7000FA010010624B0020B201002006430010DF
:109D8000020200106A4B00201E8400104143432051
:109D90004150503120457272210D0A007E02002090
:109DA000D2430010CC020010344C00207F0200206F
:109DB000D343001070B5C888324A33490024334D6C
:109DC000137889682D38B0F5005006D001282DD0C1
:109DD0002FA0FEF769FB002070BD3248032B4268BC
:109DE000006812D0082BF6D12F4B18605A602F4B09
:109DF00018605A60A1F83A454A21234812F0F2FE51
:109E0000A8684A21A0F83A4527E0294B18605A6013
:109E1000284B18605A60A1F8164548211A4812F0DC
:109E2000E1FEA8684821A0F8164516E02248032B59
:109E30008278008815D0082BCDD1204B18809A70DD
:109E40001F4B18809A70A1F84C454B210E4812F018
:109E5000C9FEA8684B21A0F84C450C4812F0C2FE80
:109E6000B9E7184B18809A70174B18809A70A1F8B0
:109E700028454921044812F0B5FEA8684921A0F8F8
:109E80002845EAE702000010E44700206492002021
:109E9000414350204150503120D3B3C9E445727240
:109EA000210D0A002084001093020020ED430010D1
:109EB000E7020010494C002028840010EF02001037
:109EC000514C002090020020EA43001070B5CA886F
:109ED00079497A4842F21606931B0024784D097896
:109EE0008068B2426AD007DCA2F11402B2F50052D7
:109EF00008D0012A04D137E0012B78D0132B77D07A
:109F000070A008E0744A032996799388126805D0F6
:109F1000082916D071A0FEF7C7FACBE076490A608F
:109F20008B808E7175490A608B808E71A0F85C41C0
:109F30001321624812F056FEA8681321A0F85C4174
:109F4000B5E06F490A608B808E716E490A608B8024
:109F50008E71A0F8A4411721584812F043FEA8685A
:109F60001721A0F8A441A2E0674A032953681268A8
:109F700002D0082973D110E064490A604B6064493B
:109F80000A604B60A0F86E4114214C4812F02AFE82
:109F9000A8681421A0F86E4189E05E490A604B6010
:109FA0005D490A604B60A0F8B6411821434812F0A1
:109FB00019FEA8681821A0F8B64178E0574A03298D
:109FC0005368126802D0082974D112E054490A601B
:109FD0004B6054490A604B60A0F880411521374816
:109FE00012F000FEA8681521A0F880415FE011E0A2
:109FF00036E04D490A604B604C490A604B60A0F85E
:10A00000C84119212D4812F0EDFDA8681921A0F8CA
:10A01000C8414CE0464A0329126802D0082949D1B8
:10A020000EE044490A6044490A60A0F892411621B2
:10A03000224812F0D7FDA8681621A0F8924136E018
:10A040003E490A603E490A60A0F8DA411A211B48DD
:10A0500012F0C8FDA8681A21A0F8DA4127E029E02B
:10A06000384A03299388126802D0082922D10EE0C9
:10A0700035490A608B8035490A608B8084870321CB
:10A080000E4812F0AFFDA868032184870FE0304925
:10A090000A608B802F490A608B80A0F8F244462129
:10A0A000074812F09FFDA8684621A0F8F244044832
:10A0B00012F098FD002070BD02000010E44700205F
:10A0C000649200204154432045727220D3B3C9E406
:10A0D000BAC5210D0A000000DA8300104154432064
:10A0E000415050312043616C6C20B0E5BFA8B4ED05
:10A0F000CEF3210D0A000000E201002036430010DB
:10A10000320200109E4B0020E18300102A02001052
:10A11000924B002039020010A54B0020F69500203C
:10A12000E90100203D430010F501002045430010E7
:10A13000E9830010F10100209A4B00204102001039
:10A140004D43001034960020E50100104D4B0020D7
:10A15000E1020010E443001070B51A481B490024C6
:10A16000037819488A681A4D81880068032B06D045
:10A17000082B13D017A0FEF797F9002070BD1D4BD8
:10A18000186099801C4B18609980948703210F48B0
:10A1900012F028FDA868032184870FE0174B186090
:10A1A0009980174B18609980A2F8F244462107481D
:10A1B00012F018FDA8684621A0F8F244044812F0F5
:10A1C00011FDDAE70200001034960020E447002079
:10A1D0006492002041544354696D652041505031D0
:10A1E0002043686F6F7365426F61726420457272BD
:10A1F000210D0A00E50100104D4B0020E102001086
:10A20000E4430010F0B585B0FEF784F82C4C2178BB
:10A21000491C2170FEF782F82AA200212C4800F088
:10A2200079FC2B4804AA2BA1283008F05BFF04AB73
:10A2300000222BA12D4809F0F3F904AB00222CA138
:10A240002F4809F0EDF9224804AB00222DA154302B
:10A2500008F096FC1E4804AB00222FA17C3008F0C9
:10A260008FFC04AD02270026304800970395CDE906
:10A2700001061748642332462DA1A4300AF0CEF817
:10A280002E4800970395CDE90106114801230022CD
:10A290002BA1D8300AF0C2F8FEF73CF82178491E0D
:10A2A00011F0FF01217008D12849098829B1FEF772
:10A2B00035F80AF097FF05B0F0BDFEF72FF8FAE782
:10A2C0005A01001053454D5F53594E43480000005A
:10A2D00094DA002043414E335F4D555445580000F9
:10A2E00063616E337265637673656D0000A3001061
:10A2F00063616E33527850726F53656D00000000D9
:10A30000083A012043414E31204C65642045766572
:10A310006E7420466C61670043414E32204C656488
:10A32000204576656E7420466C61670069B400084C
:10A3300043414E3354696D65546D72009582010836
:10A34000547850444F546D720000000044010010D6
:10A35000F0B58BB0FDF7DEFF924F3978491C3970AC
:10A36000FDF7DCFF002409A8032505940694CDE938
:10A3700007508D488C498026006B2346CDE901109B
:10A38000042000908848CDE90364884A88A1C03839
:10A3900009F03CFB09A805940694CDE907508748CD
:10A3A00002AB6021406A854A83E813000520CDE9AD
:10A3B000000282480023824A82A1C03809F026FBAD
:10A3C00009A805940694CDE90750854801AA002301
:10A3D000016B049482E843000A2000908048814A7F
:10A3E00081A1C03809F012FB09A805940694CDE9B3
:10A3F0000750824801AA0023016B049482E84300BD
:10A40000092000907D487E4A7EA1C03809F0FEFAFE
:10A4100009A805940694CDE907507F4801AA0023B6
:10A42000016B049482E843000D2000907A487B4A37
:10A430007BA1C03809F0EAFA09A805940694CDE991
:10A4400007507C4801AA0023016B049482E8430072
:10A450000C2000907748784A78A1C03809F0D6FAE5
:10A4600009A805940694CDE90750794801AA00236C
:10A47000016B049482E84300062000907448754AFA
:10A4800075A1C03809F0C2FA09A805940694CDE96F
:10A490000750764801AA0023016B049482E8430028
:10A4A000082000907148724A72A1C03809F0AEFAD3
:10A4B00009A805940694CDE90750734801AA002322
:10A4C000016B049482E84300072000906E486F4AB5
:10A4D0006FA1C03809F09AFA09A805940694CDE94D
:10A4E00007506F4801AA0023016B049482E84300DF
:10A4F0000E2000906A486B4A6BA1C03809F086FABA
:10A5000009A805940694CDE907506B4801AA402696
:10A510008169049482E84300142000906648002377
:10A52000664A67A1C03809F071FA09A80594069433
:10A53000CDE90750654801AA00238169049482E8A7
:10A540004300152000906148614A62A1C03809F0BB
:10A550005DFA09A805940694CDE90750604801AB5F
:10A56000B200416E83E81700132000905C4800237E
:10A570005C4A5DA1C03809F049FAFDF7CBFE397895
:10A58000491E11F0FF01397008D15B49098829B1D2
:10A59000FDF7C4FE0AF026FE0BB0F0BDFDF7BEFECF
:10A5A000FAE700005A01001014B80020E92501085C
:10A5B0004D61696E5F7461736B000000D4BA002056
:10A5C0002DAC000843414E31536C61766553746184
:10A5D00072744D616E616765725F7461736B0000C8
:10A5E00014BD0020E59F010843414E31536C617654
:10A5F0006552785F7461736B00000000D4BF002067
:10A60000D1A0010843414E31536C61766554785FA7
:10A610007461736B0000000094C20020F5A1010872
:10A6200043414E32536C61766552785F7461736B4F
:10A630000000000054C50020E1A2010843414E3251
:10A64000536C61766554785F7461736B0000000031
:10A6500014C8002081A4010843414E334D61737436
:10A66000657252785F7461736B000000D4CA002079
:10A6700091A5010843414E334D617374657254785E
:10A680005F7461736B00000094CD002005A4010885
:10A6900043414E33527850726F635F7461736B0045
:10A6A00054D000209D6101084F6C65644B65795F53
:10A6B0007461736B0000000014D30020B9AB000874
:10A6C00043414E314C45445461736B00D4D4002057
:10A6D000B5AF000843414E324C45445461736B00A2
:10A6E00094D600209180010854696D547850444FED
:10A6F0005461736B000000004401001008B500F0C5
:10A70000E3F901F089FF684609F02AF96A46052154
:10A71000012008F031FFFDF7F9FDFFF773FDFFF7AA
:10A7200017FEFDF7F5FD4FF47A7010F0A1F902F075
:10A730007FFC694601480BF0B3F908BD94B40020D2
:10A740002DE9F84F504D00206A4629680B5C1354E0
:10A75000401CC0B20328F9D34C4E002404EB440043
:10A7600030440322694610F03BFC18B9641CE4B283
:10A770000C2CF3D32868641CE4B201796FF02F032A
:10A78000202950D03039427901EB810103EB41019E
:10A790001144CAB2817A407A303800EB800003EB72
:10A7A00040000844696886B208784D78303800EB7C
:10A7B000800003EB4000284400F0FF08C8780D79C2
:10A7C000303800EB800003EB4000284400F0FF0A23
:10A7D0008879CD79303800EB800003EB40002844C5
:10A7E00000F0FF0906F5FA6080B26421B0FBF1F3D6
:10A7F000B0FBF1F5DBB201FB1500132B01D964307E
:10A80000C0B200EB90010723B1FBF3F51F4F03FB30
:10A81000151124373D19114415F8015C80072944AE
:10A8200089B203D006E041793039B2E7032C01D276
:10A83000491E89B2B1FBF3F003FB1017104603F079
:10A8400049FF114D0835E870404603F043FF40F0E2
:10A850008000A870504603F03DFF6870204603F06A
:10A8600039FF2871484603F035FF2870F0B203F035
:10A8700031FF6871384603F02DFFA871284603F0B8
:10A88000ABFBBDE8F88F0000480000106CE9010840
:10A8900000F00F01000900EB800001EB4000C0B2A6
:10A8A0007047000070B5664A6648C9880024664D46
:10A8B000137880681139B1F5005108D0012942D0D0
:10A8C00002297DD061A0FDF7EFFD002070BD644935
:10A8D000032B4A68096814D0052B23D0082BF4D128
:10A8E000604B19605A60604B19605A60A0F82641AD
:10A8F0001021544812F076F9A8681021A0F82641DA
:10A9000077E05A4B19605A60594B19605A60A0F8A9
:10A91000BA400A214B4812F065F9A8680A21A0F84C
:10A92000BA4066E0534B19605A60534B19605A6045
:10A93000A0F8F0400D21434812F054F9A8680D2109
:10A94000A0F8F04055E04D49032B4A68096814D03F
:10A95000052B23D0082BB8D1494B19605A60494BBD
:10A9600019605A60A0F838411121364812F03AF9BE
:10A97000A8681121A0F838413BE0434B19605A60A8
:10A98000424B19605A60A0F8CC400B212D4812F0C0
:10A9900029F9A8680B21A0F8CC402AE03C4B1960AB
:10A9A0005A603C4B19605A60A0F802410E212548BC
:10A9B00012F018F9A8680E21A0F8024119E0FFE78B
:10A9C0003549032B4A68096817D0052B26D0082B78
:10A9D00085D1324B19605A60314B19605A60A0F82A
:10A9E0004A411221174812F0FDF8A8681221A0F878
:10A9F0004A41154812F0F6F867E72A4B19605A6089
:10AA0000294B19605A60A0F8DE400C210D4812F065
:10AA1000E9F8A8680C21A0F8DE40EAE7234B1960AA
:10AA20005A60234B19605A60A0F814410F21054861
:10AA300012F0D8F8A8680F21A0F81441D9E7000057
:10AA400002000010E4470020649200204243552099
:10AA50004150503120D3B3C9E4457272210D0A0030
:10AA6000E6950020D201002026430010BA01002004
:10AA70000E430010120200107A4B0020D283001007
:10AA8000220200108A4B00200A020010724B0020A4
:10AA9000CA0100201E430010EE950020DA010020BC
:10AAA0002E430010C2010020164300101A020010AD
:10AAB000824B00201FB568460BF0E8FD019804B0FA
:10AAC00010BD03F0A3BA000010B54FF4A06007F06A
:10AAD0003DFF0DF04BFDA8200FF0A2FF0BF06EFE26
:10AAE00000F044F807F0ACFB07F072FF07F094FAAF
:10AAF00003F032FA4FF47A700FF0B8F901F062FF08
:10AB000007F076FA07F03EFA0149087010BD000020
:10AB10000200001038B514460A466B46214608F07C
:10AB20007FFDBDF8000008B1002038BD012038BD10
:10AB30000EB542F210724FF47A71904201D910466C
:10AB400001E0884207D3B0FBF1F3B0FBF1F201FB67
:10AB5000130392B201E083B2002202A90020CDE9E2
:10AB60000001014609F090FB0EBDFEE71CB5012176
:10AB700008460BF03BFD4FF48070009001208DF8EB
:10AB8000040000208DF8060003208DF80500022047
:10AB90008DF807006946034802F01BFE00F004F838
:10ABA0001CBD00000000024000224FF480710148EB
:10ABB00002F06DBE000002400EB5002502AC4FF45D
:10ABC000847747F2D926CDE900543B46142201216F
:10ABD000154808F011F8BDF80800B04203D1002074
:10ABE00007F058FB00E078B1CDE900543B46142251
:10ABF00002210D4808F000F8BDF80800B0420AD163
:10AC0000012007F047FBDEE7002007F04FFB96200E
:10AC1000FFF78EFFE3E70028D5D1012007F046FBC0
:10AC20009620FFF785FFEBE7E8DA00201FB520A0AC
:10AC3000FDF73AFC254C4FF4FA6525A0FDF734FCEE
:10AC400094F82900052806D927A0FDF72DFC03A9B3
:10AC50002C4808F0BDFF2C4810F031F8064601469C
:10AC60002AA0FDF721FC052E1AD02078012140F4FE
:10AC7000E060ADF8000000208DF803108DF80400AE
:10AC80008DF80200694627480FF00CFE69462648F9
:10AC90000FF008FE94F82900401C84F8290003E016
:10ACA00003A9184808F094FF2846FFF741FFC4E7BE
:10ACB000BDF8C8EBB5BDB4D3D5BEC6F4B6AFB9DCEC
:10ACC000C0EDC8CECEF1A3A10D0A00000200001015
:10ACD00063616E3120736C617665206D616E6167B2
:10ACE00065720D0A0000000063616E3120736C61B3
:10ACF0007665206D616E616765722035B4CEB5BD35
:10AD00000D0A000014BA0020E447002063616E3190
:10AD1000736C61766573746174653D307825780D68
:10AD20000A000000006400400068004001A0FDF738
:10AD3000BBBB000043414E31536C6176655F686573
:10AD4000617274626561744572726F722025640D60
:10AD50000A00000010B586B0022000240490ADF86F
:10AD60000C4019A0FDF7A0FBC820ADF80C001D4851
:10AD70004FF47A7204A90078032811D0052819D05D
:10AD800008280BD1CDE90014ADF80C2003AB052247
:10AD900041F64D01029414480EF0C4FF06B010BDF8
:10ADA000CDE90014ADF80C2003AB052241F64B01B0
:10ADB0000294F0E7CDE90014ADF80C2003AB0522B6
:10ADC00041F64C010294E6E743414E31536C617603
:10ADD000655F696E697469616C69736174696F6ECE
:10ADE0000D0A000002000010E447002001A0FDF75A
:10ADF0005BBB000043414E31536C6176655F6F7001
:10AE000065726174696F6E616C0D0A0001A0FDF7D7
:10AE10004BBB000043414E31536C6176655F706FF0
:10AE200073745F5450444F0D0A00000070B5140B4A
:10AE3000C2F303250E48FDF737FB012C11D0022C7D
:10AE40000FD0042C0DD0052C0BD0002D08D10948B3
:10AE5000002101230478084A012C05D003701170E9
:10AE600070BD002DFCD0F2E70170137070BD0000C2
:10AE700088080208010000200100001001A0FDF771
:10AE800013BB000043414E31536C6176655F706FB8
:10AE900073745F73796E630D0A00000001A0FDF703
:10AEA00003BB000043414E31536C6176655F7072A5
:10AEB000654F7065726174696F6E616C0D0A000098
:10AEC00001A0FDF7F1BA000043414E31536C6176A9
:10AED000655F73746F707065640D0A0001A0FDF703
:10AEE000E3BA000043414E31536C6176655F737481
:10AEF0006F72654F44537562496E646578203A20DD
:10AF000025342E34782025322E32780D0A000000A8
:10AF1000F0B5254C85B00221204600F075FB0128D4
:10AF20002CD16A460021204600F03EFC1F4D6B6983
:10AF300018465B1CC82B00D300231D4900EB4000C2
:10AF400001EB8002009810809DF80900022807D0CC
:10AF5000002090709DF80A00D0700021684606E03D
:10AF60000120F6E746185718F67A3E71491CD67844
:10AF70008E42F7D86B612868401C28600421204667
:10AF800000F042FB18B10421204600F085FA0821A8
:10AF9000204600F039FB002803D00821204600F0AD
:10AFA0007BFA05B0F0BD000000640040880100108D
:10AFB000303A01200EB5002502AC4FF4847747F2F9
:10AFC000D926CDE900543B4614220121154807F04B
:10AFD00013FEBDF80800B04203D1022007F05AF971
:10AFE00000E078B1CDE900543B46142202210D481F
:10AFF00007F002FEBDF80800B0420AD1032007F0B6
:10B0000049F9DEE7022007F051F99620FFF790FD9D
:10B01000E3E70028D5D1032007F048F99620FFF791
:10B0200087FDEBE710DB002001A0FDF73DBA000033
:10B0300043414E32536C6176655F6865617274623C
:10B040006561744572726F722025640D0A000000FC
:10B0500010B586B0022000240490ADF80C401BA06F
:10B06000FDF722FAC820ADF80C001F484FF47A72A1
:10B0700004A90078032808D0052810D0082818D083
:10B080001AA0FDF711FA06B010BDCDE90014ADF815
:10B090000C2003AB052241F64B01029412E0CDE9EE
:10B0A0000014ADF80C2003AB052241F64C010294CC
:10B0B00008E0CDE90014ADF80C2003AB052241F601
:10B0C0004D01029410480EF02DFEDCE743414E3254
:10B0D000536C6176655F696E697469616C697361EF
:10B0E00074696F6E0D0A000002000010415050316B
:10B0F00020696E697420426F617264204572726FBC
:10B1000072210D0A000000006492002001A0FDF7EA
:10B11000CBB9000043414E32536C6176655F6F706E
:10B1200065726174696F6E616C0D0A0001A0FDF7B4
:10B13000BBB9000043414E32536C6176655F706F5E
:10B1400073745F5450444F0D0A00000070B5140B27
:10B15000C2F303250E48FDF7A7F9012C11D0022CEC
:10B160000FD0042C0DD0052C0BD0002D08D1094890
:10B17000002101230478084A012C05D003701170C6
:10B1800070BD002DFCD0F2E70170137070BD00009F
:10B1900088080208010000200100001001A0FDF74E
:10B1A00083B9000043414E32536C6176655F706F26
:10B1B00073745F73796E630D0A00000001A0FDF7E0
:10B1C00073B9000043414E32536C6176655F707213
:10B1D000654F7065726174696F6E616C0D0A000075
:10B1E00001A0FDF761B9000043414E32536C617616
:10B1F000655F73746F707065640D0A0001A0FDF7E0
:10B2000053B9000043414E32536C6176655F7374ED
:10B210006F72654F44537562496E646578203A20B9
:10B2200025342E34782025322E32780D0A00000085
:10B23000F0B5254C85B00221204600F0E5F9012843
:10B240002CD16A460021204600F0AEFA1F4D2B6A31
:10B2500018465B1CC82B00D300231D4900EB40009F
:10B2600001EB8002009810809DF80900022807D0A9
:10B27000002090709DF80A00D0700021684606E01A
:10B280000120F6E746185718F67A3E71491CD67821
:10B290008E42F7D82B62A868401CA8600421204683
:10B2A00000F0B2F918B10421204600F0F5F80821A9
:10B2B000204600F0A9F9002803D00821204600F01C
:10B2C000EBF805B0F0BD00000068004088010010F8
:10B2D0003053012010B50C4604A0FDF7E5F82146D7
:10B2E000BDE8104006A0FDF7DFB800004D46442041
:10B2F0004865617274204572726F72210D0A0000F8
:10B3000043414E334D61737465725F686561727459
:10B31000626561744572726F722025640D0A0000C7
:10B3200001A0FDF7C1B8000043414E334D61737475
:10B3300065725F696E697469616C69736174696F64
:10B340006E0D0A0001A0FDF7AFB8000043414E3377
:10B350004D61737465725F6F7065726174696F6E51
:10B36000616C0D0A0000000070B505460C4607A090
:10B37000FDF79AF80521284611F0F8FD21462846E8
:10B38000BDE8704001220FF018BE000043414E336B
:10B390004D61737465725F706F73745F536C617627
:10B3A00065426F6F7475702025780D0A00000000EB
:10B3B00010B5044C04A02168FDF776F82068401C05
:10B3C000206010BDB495002043414E334D6173742D
:10B3D00065725F706F73745F5450444F204D61739A
:10B3E00074657253796E63436F756E74203D2025CA
:10B3F00064200D0A000000000148FDF755B8000068
:10B400008808020801A0FDF74FB8000043414E3301
:10B410004D61737465725F706F73745F73796E637F
:10B420000D0A000001A0FDF73FB8000043414E3374
:10B430004D61737465725F7072654F70657261748F
:10B44000696F6E616C0D0A0001A0FDF72DB8000058
:10B4500043414E334D61737465725F73746F7070E6
:10B4600065640D0A0000000010B5094802F025FDD2
:10B470000748084942790A7002794A70C2788A708E
:10B480008278CA7042780A710078487110BD000055
:10B4900032000010C595002030B508231024042286
:10B4A000B1F5007F1DD010DC202929D007DC01294F
:10B4B00021D0042922D0082900D1C46030BD402900
:10B4C00020D0B1F5807FF9D10BE00025B1F5004F18
:10B4D00006D008DCB1F5806F03D0B1F5006FEDD177
:10B4E0008561426030BDB1F5803F0DD0B1F5003FC0
:10B4F000F8D1446030BD0549816030BDC36030BDC6
:10B50000036130BD046130BD436030BD0101010005
:10B51000094910B588424FF0010101D14C0601E004
:10B520004FF0806420460BF085F82046BDE81040BF
:10B5300000210BF07FB8000000640040F0B5827A73
:10B540002F4D012191402A6842F001022A602C4EC1
:10B550001C3632688A433260294A047B294B0C32FC
:10B56000A4B914688C4314604488C78844EA07442B
:10B57000877A03EBC707C7F840460488878844EA00
:10B580000744877A03EBC707C7F84446047B012CBE
:10B5900012D114680C431460847A026803EBC4046B
:10B5A0004FEA3242C4F84026847A426803EBC4036F
:10B5B0004FEA3242C3F84426114AC37A121D002BC7
:10B5C000136806D00B4313600D4A0389143213B17C
:10B5D00004E08B43F7E713688B4313600389012B67
:10B5E00002D113680B431360407B012802D13068FD
:10B5F00008433060286820F001002860F0BD00009A
:10B6000000660040006000400246002053690B4283
:10B610004AD0B1F5807F3BD013DC08292ED007DC5F
:10B62000012926D0022927D004293DD1D0682BE05A
:10B63000102925D0202926D0402935D11069102184
:10B6400030E0B1F5004F2BD00BDCB1F5007F22D0FC
:10B65000B1F5806F22D0B1F5006F25D190697021CE
:10B6600020E0B1F5803F11D0B1F5003F1CD150680A
:10B67000E5E790680D4915E0D06802E0D068DEE7A4
:10B68000106903210EE0106908210BE05068FBE708
:10B690009069012106E09069022103E0906900E0D1
:10B6A0005068042101F088B97047000001010100D1
:10B6B000002A426901D00A4300E08A434261704790
:10B6C00010B50368002223F002030360036843F00F
:10B6D000010303604FF6FF7300E0521C4468E40767
:10B6E00001D19A42F9D14268D2073ED08A79012A23
:10B6F00002683CD022F080020260CA79012A026806
:10B7000038D022F0400202600A7A012A026834D05E
:10B7100022F0200202604A7A012A026830D022F028
:10B72000100202608A7A012A02682CD022F00802F4
:10B730000260CA7A012A026828D022F0040202605C
:10B740008A78CC78920742EA04620C7942EA044291
:10B750004C79098842EA0452491E0A43C2610168D1
:10B7600021F001010160002114E0002010BD42F031
:10B770008002C1E742F04002C5E742F02002C9E77B
:10B7800042F01002CDE742F00802D1E742F0040295
:10B79000D5E7491C4268D20701D09942F9D14068E7
:10B7A000C007E2D1012010BD10B500EB0113D3F8A2
:10B7B000B04114F004041472D3F8B04133D0E4085B
:10B7C0005460D3F8B04104F002045472D3F8B44189
:10B7D00004F00F049472D3F8B441240AD474D3F85B
:10B7E000B841D472D3F8B841240A1473D3F8B841DD
:10B7F000240C5473D3F8B841240E9473D3F8BC418D
:10B80000D473D3F8BC41240A1474D3F8BC41240C7B
:10B810005474D3F8BC311B0E937439B1016941F0F3
:10B820002001016110BD640D1460CAE7C16841F0D8
:10B830002001C16010BD000009490A6842F0010200
:10B840000A600A6843F60E739A430A600A6842EA7D
:10B8500000200860086820F00100086070470000C0
:10B860000066004000218171C171017241728172D4
:10B87000C1728170C17003210171022141710121E6
:10B880000180704730B50246002093685B0108D400
:10B890009068000101D5012003E09068C00037D511
:10B8A000022002EB0012D2F8803103F00103C2F84B
:10B8B00080310B7A73B3D2F880414D681C434B7AC8
:10B8C00043EAC5031C43C2F880418B7A03F00F039F
:10B8D0008B72D2F8843123F00F03C2F88431D2F88E
:10B8E00084318C7A2343C2F88431CB7ACC6843EA22
:10B8F0000423C2F88831CB7B096943EA0121C2F8ED
:10B900008C11D2F8801141F00101C2F8801130BDD4
:10B91000042030BDD2F880314C7A23430C8843EAAE
:10B920004453C2F88031D0E74FF4A06007F00EB85E
:10B930002DE9F0474FF0FF3C0446C0F818C00078EE
:10B94000DFF82091484D59F820108A0055F8202042
:10B9500001D5526800E01268444B454E454F0A42FB
:10B960004ED0A16800204860A08A00043DD4A07891
:10B97000E8BB2078DFF8008158F82000018841F406
:10B9800000710180207858F82000818821F400613E
:10B9900081800620A061227858F82210088B800749
:10B9A00005D5A069012802D0A069401CF6D1A06984
:10B9B000012820D0A069401C1DD0C4F818C053F83D
:10B9C0002200016821F001010160207858F8200070
:10B9D000818821F400718180207858F820008188C6
:10B9E00021F48051818001202073204600E024E072
:10B9F00000F048FD21E02046BDE8F04700F093BD8F
:10BA000056F820108A0055F8202001D5526800E031
:10BA100012680A4211D157F820108A0055F82020E8
:10BA200001D5526800E012680A4206D01021217345
:10BA300053F820004068A1684860207859F8201029
:10BA40008A0056F8202041EA020157F8202055F8D4
:10BA5000200041EA020101D5C16000E081600020C0
:10BA6000BDE8F087B4EC0108F0000010E40000200D
:10BA7000C0EC0108CCEC0108B40000202DE9F0472F
:10BA80004FF0FF33044683610078DFF84491514D55
:10BA900059F820108A0055F8202001D5526800E09E
:10BAA0001268DFF834C14D4E4D4F0A425ED06168D6
:10BAB00000204860A08A40044FD4A078E8BB2078DA
:10BAC000484A52F82000818821F4006181800520D5
:10BAD000A06194F8008052F82810888A400705D4A5
:10BAE000A069012802D0A069401CF6D1A0690128F4
:10BAF00037D0A069401C34D0A361606900021AD419
:10BB000052F82800018841F4007101800620A061EC
:10BB1000207852F82010088B800705D5A0690128ED
:10BB200002D0A069401CF6D1A069012819D0A069F3
:10BB3000401C16D0A361207800E00EE05CF82000E5
:10BB4000016821F001010160207852F8200081880D
:10BB500021F40071818001202073204600F0E0FC78
:10BB600021E02046BDE8F04700F0DDBC56F820108B
:10BB70008A0055F8202001D5526800E012680A4278
:10BB800011D157F820108A0055F8202001D55268AD
:10BB900000E012680A4206D0102121735CF82000F0
:10BBA000406861684860207859F820108A0056F88B
:10BBB000202041EA020157F8202055F8200041EAF0
:10BBC000020101D5C16000E081600020BDE8F0877E
:10BBD00090EC0108F0000010D80000209CEC010857
:10BBE000A8EC0108B400002010B50446007B012831
:10BBF00006D0207B102803D0207B08B1012010BD87
:10BC0000207800F005FA2178104850F821000188CA
:10BC100021F001010180207800F026F9E078022867
:10BC200003D16178207800F04BF9E37862782078CE
:10BC3000616900F05BFA002020732061401EA06162
:10BC4000002103480CF051F9002010BDB400002081
:10BC50000014004070B50C4D04464FF0FF3055F80D
:10BC600024100968886155F8240010F002FF55F887
:10BC7000240010F011FF55F8240010F0FDFE55F8D7
:10BC800024100420087270BDFC00001070B5234B16
:10BC9000027885784FF2FF0453F82210012D08D165
:10BCA00045686D682DB9057B012D35D0057B062DC6
:10BCB00032D0898A01F4706101611021017353F857
:10BCC00022108C820169C9050DD5017853F8211025
:10BCD0000A8842F400420A80017853F821100A8849
:10BCE00022F400420A80016989050DD5017853F8D4
:10BCF00021100A8842F400420A80017853F821108A
:10BD00000A8822F400420A80016901690169007809
:10BD1000FFF7A0FF002070BD8C82FBE7B40000207D
:10BD200018B40023ADF800300178214A52F82140C0
:10BD3000A48A04F0DF04ADF80040847894BBBDF819
:10BD40000040E40720D05C1E8461C469A489B4F576
:10BD5000804F0DD1047B052C0DD0446852F8211082
:10BD6000247A04F0FE040C8206210173042181610F
:10BD7000184618BC7047846852F82110247A44F0A1
:10BD800001040C820A21F0E7BDF80010890702D5F2
:10BD900018BC01F051BFBDF80010490602D5017B67
:10BDA0000A2901D00020E4E718BC01F0F3BF00002D
:10BDB000B400002070B50446C078284D012805D095
:10BDC00002280BD010202073012070BD207855F878
:10BDD0002000818841F4806181803DE0207855F821
:10BDE0002000828822F400728280207855F820009A
:10BDF000828842F400628280207B062807D00129D5
:10BE000005D0207B0A2811D002290FD024E0207809
:10BE10006269616800F0D6F8207855F820008188C2
:10BE200021F48051818021780D480FE020786269EB
:10BE3000A16800F0A1F8A07830B9207855F820006A
:10BE4000818841F4805181802178064850F8210092
:10BE5000016841F001010160002070BDB4000020C4
:10BE6000D8000020E400002070B5094D04460121EF
:10BE700055F824000AF0DEFB55F8240000210AF0F2
:10BE8000D9FB55F82400BDE8704000210AF0C6BB7C
:10BE90003CEC010870B5094D0446012155F8240019
:10BEA0000AF0C8FB55F8240000210AF0C3FB55F83E
:10BEB0002400BDE8704001210AF0B0BB3CEC010851
:10BEC00070B505460C46C80704D0084850F8250050
:10BED00000F09AFFA00707D504480C3050F8250061
:10BEE000BDE8704000F090BF70BD0000D800002099
:10BEF0002DE9F04105461D480E46012150F8250068
:10BF00000AF074FB19481A4C0C30002750F8250031
:10BF1000A760276120604FF48060C4E90570E76185
:10BF20004FF440302762C4E90970E7620F48276385
:10BF300067633038A76350F825006060F00707D0CA
:10BF40004020E0600B48214650F8250001F02EF813
:10BF5000B00709D50748E7600C30054950F82500BF
:10BF6000BDE8F04101F022B8BDE8F08178EC0108AD
:10BF7000341E0120D80000200F4B30B453F820406D
:10BF80000E4B1C600C689C60496819610A493C3979
:10BF9000120451F8201059604FF0000103D54FF4FE
:10BFA00080725A6200E05962D960054951F8200058
:10BFB00030BC024900F0FABF84EC0108341E0120B5
:10BFC000E40000200F4B30B453F820400E4B1C60AF
:10BFD0000C689C60496819610A493C3951F8201085
:10BFE0005960510402D54FF4807100E0002159627C
:10BFF0004021D960054951F8200030BC024900F0C9
:10C00000D5BF000084EC0108341E0120D8000020B8
:10C010001CB5044602208DF8050000208DF80400B0
:10C020000B48694630F8140000900A4850F8240084
:10C0300001F0CFFB064869460C3030F81400009040
:10C0400004480C3050F8240001F0C3FB1CBD000074
:10C0500024EC0108C00000207CB504462149214899
:10C060000C3150F8240051F82410084301210AF043
:10C07000BDFA1C4D1C4E0C3DA5F12A0015F82420DC
:10C0800030F8141056F8240001F0DFFB15F82420D6
:10C09000A5F11E0006F10C0530F8141055F8240027
:10C0A00001F0D3FB02208DF805008DF8040001207B
:10C0B0008DF8060000208DF807000A4869463C38D4
:10C0C00030F81400009056F8240001F082FB054877
:10C0D0006946303830F81400009055F8240001F01B
:10C0E00078FB7CBD60EC0108C0000020F8B5044678
:10C0F00000208DF801008DF802008DF8030015482E
:10C100001E461546005D8DF800000F46684606F095
:10C11000EBFB780207D40F48C01C005D8DF80000CF
:10C12000684606F0E1FB022E13D1E80707D0094864
:10C13000801F005D8DF80000684606F0D5FBA8075B
:10C1400007D50448C01E005D8DF80000684606F063
:10C15000CBFBF8BD06EC0108F8B51F4616460D46A8
:10C160000446FFF7E1FB01208DF803004148005D24
:10C170008DF800003F48801D005D8DF801003D48AE
:10C180000930005D8DF80200684606F0ADFB6802DC
:10C1900018D43848C01C005D8DF8000035480C30BC
:10C1A000005D8DF8010033480F30005D8DF802000E
:10C1B000684606F099FB304850F82400818841F425
:10C1C00080718180022F53D1F00727D02948801F2A
:10C1D000005D8DF8000027481230005D8DF80100E9
:10C1E00024481530005D8DF80200684606F07CFB9F
:10C1F0002149243151F82400026842F01002026003
:10C2000051F82400026842F004020260A80505D536
:10C2100051F82400016841F008010160B00727D5FA
:10C220001448C01E005D8DF8000012481830005DF3
:10C230008DF801000F481B30005D8DF80200684644
:10C2400006F052FB0C49303151F82400026842F0EC
:10C250001002026051F82400026842F004020260F9
:10C26000E80405D551F82400016841F00801016097
:10C27000F8BD000006EC0108B400002070B50446CB
:10C28000007B012804D0207B102801D0207BB0B98E
:10C29000E078012811D02078384D55F82000018829
:10C2A00021F0010101802078FFF7B2FE2078FFF72E
:10C2B000DBFDE078022804D007E010202073012085
:10C2C00070BD61782078FFF7FBFD2078FFF7E2FD75
:10C2D0002078FFF7C1FE207855F82000018841F052
:10C2E000010101802078E16955F8200001F048FC47
:10C2F0006069C00206D5207855F82000018841F019
:10C3000040010180207DC00717D0207855F820001B
:10C31000818941F001018181207855F820008189CF
:10C3200021F0FE018181207855F820008189227D4D
:10C33000C2F3460241EA420181816069400006D5AC
:10C34000207855F82000018821F480610180E07890
:10C35000022804D1617820786269FFF7C9FDE3788B
:10C36000627820786169FFF7F7FE0120207353217E
:10C370004FF47A700BF074FD002070BDB400002003
:10C3800018B44FF6FF7100910221017301783C4C03
:10C3900054F821108A8822F480728A80017854F837
:10C3A00021100A8822F001020A80017854F8211035
:10C3B0000A8842F001020A80017854F821100A88A4
:10C3C00042F480720A801F218161037854F823109F
:10C3D0008A8AD20705D18269012A02D08269521C59
:10C3E000F6D18169012946D08169491C43D04FF0BB
:10C3F000FF318161416854F82320097A01F0FE0180
:10C400001182017854F82120918A890703D4009978
:10C410004B1E0093F8D2009981B34FF6FF31918201
:10C42000017854F821100A8842F400720A800178D9
:10C4300054F821100A8B9207FCD40A8822F00102DA
:10C440000A80017854F821100A8842F001020A801B
:10C45000017854F821100A8842F480620A80017839
:10C4600054F821108A8842F480728A800121017375
:10C47000002018BC704718BC00F055B80120F8E740
:10C48000B4000020007810F0FBBA00000F4A0E49FB
:10C490004BF6FF73116000219180D38011814FF41E
:10C4A000806353811B0193810323437081700223B6
:10C4B000C37041608160017301614161491E816106
:10C4C000C261002070470000A0860100241E0120E8
:10C4D00070B5124D002455F8240038B1816949B176
:10C4E0008169491C02D08169491E8161641C032C49
:10C4F000F1D370BD4FF0FF31816155F82410102049
:10C50000087355F8240001690029EFD1FF2101616A
:10C5100055F8240000F064F8E8E7000088000020E7
:10C52000007810F0DFBA4FF0FF3181611021017304
:10C53000FF21016100F054B870B50446007B80070C
:10C540002AD4207B032827D0207B052824D0207BD9
:10C5500010B3207B10281FD00220207360691F4D6C
:10C56000C00116D40620A061207855F82000018B68
:10C57000890705D5A169012902D0A169491CF6D115
:10C58000A06901280AD0A069401C07D04FF0FF30F5
:10C59000A061A07838B118E0012070BD2046BDE848
:10C5A0007040FFF7C0BF207855F82000018841F4A3
:10C5B000807101806069C00303D501212046FFF727
:10C5C000F9FB032020731F20A061207855F820007C
:10C5D000818841F400718180002070BDB40000208A
:10C5E00070B5044600780B4D55F8200010F041FA64
:10C5F000207855F8200010F04FFA207855F82000E8
:10C6000010F03AFA2178042055F821100872002021
:10C6100070BD0000FC000010044910B50020086047
:10C6200000F01CF8BDE8104000F002B80C0100203A
:10C6300010B5FBF76FFE04461021044806F02FF9F1
:10C640002046BDE81040FBF769BE00009C9F00102B
:10C6500001490860704700000C01002010B5FEF78A
:10C6600029FA08490A6842F080720A6006490022E5
:10C670004A600A6842F001020A60BDE81040FFF714
:10C68000E7BF0000FCED00E0001000E0014840685A
:10C6900070470000001000E02DE9F047C988364AD5
:10C6A0000024364F364D374EDFF8DC80DFF8DC9063
:10C6B000A1F500519042A1F17D0117D111B10129DD
:10C6C00056D109E02F48022231491230FCF7A8F870
:10C6D00030B3DFF8BC8016E02A4808222D493630F6
:10C6E000FCF79EF8E0B140462A4F23E011B1012942
:10C6F0003ED116E02348022227491230FCF790F879
:10C7000070B1DFF894800921B8F800003880A8687B
:10C71000A0F8A8401A4810F065FAB8F80000708236
:10C7200026E0184808221D493630FCF779F8F8B1A0
:10C730001A4F40463968016079684160A8680A214B
:10C74000A0F8BA400E4810F04DFA7878397800EB2E
:10C750000120010989F80210A8680821A0F8964074
:10C76000074810F03FFA386846F8360F786870606E
:10C770000020BDE8F0870000E4470020BE830010E1
:10C7800048B10020B0000010D2950020B9830010FD
:10C79000F2020010F4020010F5430010544C002087
:10C7A0002DE9F0411A4900251A4E1B4F1B4C8842B7
:10C7B0004FF0010217D11A493846FCF731F820B37F
:10C7C000174916E022706070B0688846032185879B
:10C7D000104810F007FA207800F0FD00207098F85B
:10C7E0000000387011E00F490B48FCF719F860B1F0
:10C7F0000C490878A0F10A02142A227802D842F0E3
:10C800000202DFE702F0FD02DCE70020BDE8F08174
:10C81000E447002048B10020B0000010CB95002074
:10C82000CB020010334C00202DE9F0412B490026AB
:10C830002B4D2C4FDFF8B08088424FF003022DD1F2
:10C840002A4908F12000FBF7EBFFB0B3274C207812
:10C8500018B3012807D0022836D0032834D024A0EA
:10C86000FBF722FE30E0607806282DD2DFE800F0EA
:10C870002C2C2C2C2C03A078012825D1687804219D
:10C8800040F001006870B868A0F84E60154810F0DC
:10C89000A9F9687800F0FE00687015E012481849A0
:10C8A0002030FBF7BDFF40B1154C207860B1012866
:10C8B000D1D16078062807D200E00BE0DFE800F075
:10C8C000040404040403D6E72188A8F82010A17802
:10C8D00088F822100020BDE8F0810000E447002025
:10C8E000A683001048B10020B0000010CD02001057
:10C8F00044656C20436D6420457272210D0A00006E
:10C90000354C00202DE9F04723490026234D244FC4
:10C91000DFF89080DFF89090DFF890A088424FF029
:10C92000080207D122490AF12E00FBF779FF80B3F4
:10C930001F4C06E01D481F492E30FBF771FF40B326
:10C940001C4C0821E078287020796870A078E87085
:10C9500060792871B868A0F89660114810F042F923
:10C96000A17988F80010B8680421A0F84E600C483E
:10C9700010F038F9E17989F80110B868022146858C
:10C98000074810F02FF95046216840F82E1F6168C3
:10C9900041600020BDE8F087E4470020B983001023
:10C9A00048B10020A6830010A4830010B00000103E
:10C9B000DD010010454B0020024600200A4200D055
:10C9C0000120704704480368001D0268001D0168CB
:10C9D00002A0FBF769BD0000107AFF1F43505520ED
:10C9E0003A2053544D3332463430375A4754362C5C
:10C9F000204C5146503134342C20554944203D20A0
:10CA00002530385820253038582025303858200D0A
:10CA10000A0000002DE9F041424D8CB00024AC70BA
:10CA2000EC702C716C71AC71EC713F493F48FBF7B5
:10CA300023FF3F4FDFF8FC8000213888688198F899
:10CA400000002872802340220846009400F09AF8E3
:10CA500039A23CA106A8FBF733FD06AECDE904469A
:10CA60000F20CDE9000400230121029403941A460B
:10CA7000084600F055FD142106A8FBF766FF3B8829
:10CA800031A234A106A8FBF71BFDCDE9044610270F
:10CA9000CDE900740294039400233A460221012058
:10CAA00000F03EFD142106A8FBF74FFF98F8003078
:10CAB0002AA22DA106A8FBF703FDCDE90446CDE986
:10CAC000007402940394002320220321012000F02B
:10CAD00027FD142106A8FBF738FF134B24A227A13A
:10CAE00006A8FBF7EDFCCDE90446CDE900740294FD
:10CAF0000394002330220421012000F011FD0420C2
:10CB00000BF0CCFD009468788023000100F1100147
:10CB1000CAB2C0B2002100F043FD05F021FF0CB005
:10CB2000BDE8F0815C000010A0DB0020171E012092
:10CB30002E00001003000010D1A1D4F1C9E8D6C323
:10CB40000000000025730000B3B5C1BEB1E0BAC556
:10CB50003A2000002573253034640000B3B520204E
:10CB60002020BAC53A20000025732530316400002A
:10CB7000B3B5D0CDB1E0BAC53A2000002573257316
:10CB800000000000F0B50C4D059C002604EBC41419
:10CB900004EB841467190BE000EBC0150C463D4410
:10CBA00002E02E55641CE4B29C42FAD3401CC0B291
:10CBB0009042F1D3F0BD0000AADB002030B40A4659
:10CBC000D0F8AC11D0F8B0414FF0FF3351F822103B
:10CBD00024F81230C1F307410122431883F8C02121
:10CBE000D0F8BC2130BC10472DE9F04F9946DDE963
:10CBF000094C4FF0FF3BDDF82CA048E0ACEB020302
:10CC00005BB20D78002B02DD05FA03F503E0C3F1FA
:10CC1000000325FA03F5EEB202DDCCF1080301E0D2
:10CC2000C2F10803DBB2834200D903460CEB0307D1
:10CC30004FF0FF0808FA07F5CCF1080C28FA0CF8B9
:10CC400045EA080594F800C0AE430CEA050C1A4406
:10CC50004CEA060CD2B284F800C0072A07D9002299
:10CC6000B9F1000F01D05D4600E00125294407F02D
:10CC7000FF0CBCF1070F08D94FF0000CBAF1000F00
:10CC800001D05D4600E001252C44C01AC0B2002846
:10CC9000B4D1BDE8F08F0000F0B5C8882349244B1B
:10CCA000244C254D254E0A780B38B0F5005004D0A1
:10CCB000012820D0022837D12AE02148032A4178D0
:10CCC0000078C1F3001704D0052A0FD0082A2BD111
:10CCD00005E018705970207061701A4804E02870DF
:10CCE000697030701848717007701DE0174908703E
:10CCF0001749087018E01748032A007802D0082A5C
:10CD000012D102E09870A0700EE0A870B0700BE035
:10CD10001148032A007802D0082A05D102E0D87011
:10CD2000E07001E0E870F0700020F0BD020000103B
:10CD3000D8010010404B00209D010020F14200105E
:10CD4000DA95002004000010060000109C0100206D
:10CD5000F0420010C0830010DC9500200148FEF76F
:10CD6000E7BD0000940000200148FEF787BE0000E8
:10CD7000940000200848006810F0815F0AD007493D
:10CD80000120887004494FF081500831086004A0E8
:10CD9000FBF78ABB7047000000640240840000205B
:10CDA0007561727431210203040D0A0070B5084CDC
:10CDB000084D2146284600F0B9F8002806D0214643
:10CDC000284600F00BF804490120487070BD0000AF
:10CDD00000800028B864024084000020074A904286
:10CDE00001D2074801E005481038064A8B0001EAE5
:10CDF000020101D5C1607047816070471064024034
:10CE0000006002407D0F7D0F2DE9F043016821F0A5
:10CE1000010101600021016041608160C160016128
:10CE2000212141613C493C4A3D251039904202D1C3
:10CE30008D60BDE8F083384A4FF474661832904232
:10CE400001D18E60F5E7344A4FF4741730329042C6
:10CE500001D18F60EDE7304A4FF0746C4832904258
:10CE600002D1C1F808C0E4E72B4B2C4A603398424A
:10CE700001D1CA60DDE7284C294B7834A04201D1AA
:10CE8000CB60D6E7DFF89080264C08F1900840454B
:10CE900001D1CC60CDE7DFF880804FF03D5908F13B
:10CEA000A808404502D1C1F80C90C2E71E49DFF83E
:10CEB00078800839404501D10D60BAE71A4D183520
:10CEC000A84201D10E60B4E7174D3035A84201D118
:10CED0000F60AEE7144D4835A84202D1C1F800C03A
:10CEE000A7E7114D10496035091FA84201D10A601A
:10CEF0009FE70D4A7832904201D10B6099E70A4AC8
:10CF00009032904201D10C6093E7074AA8329042D8
:10CF10008FD1C1F800908CE7106002403D000020E6
:10CF2000400F002000003D201064024030B5104A40
:10CF30000024904201D20F4A01E00D4A103A0E4BF4
:10CF4000194205D01E2303EAD12503682B4002E0D5
:10CF5000406900F08003880001D5506800E0106847
:10CF6000064A1040084201D003B10124204630BDDA
:10CF700010640240006002403C0F3C0F7D0F7D0FAB
:10CF80000B0607D5436912B143F0800301E023F09B
:10CF900080034361802908D0002A026801F01E0145
:10CFA00001D00A4300E08A430260704730B503684D
:10CFB000124ACC6813400A682243D1E905452C4344
:10CFC0002243CC6922430C6A22434C6A22438C6A76
:10CFD00022434C6B22438C6B22431A43026042690A
:10CFE00022F00703D1E90B2422431A4342610A6964
:10CFF00042604A6882608968C16030BD3F801CF031
:10D0000070470000411C0BD0074AB2F9001088425B
:10D0100001D1491E1180054A002102EB4010017028
:10D020004FF0FF3070470000780100208838012061
:10D0300070B586B0FBF76EF918490C68FBF76EF90E
:10D0400017A0FBF731FA25E034F88C0F9FED211A79
:10D0500000EE100AF8EE400A80EE810A10EE100A87
:10D0600010F00CFCD4E908236425D6185543B5FB11
:10D07000F6F554F86C6C0DF1080C00958CE8430043
:10D0800014F8551C14A0FBF70FFAFBF743F9E46AF8
:10D09000FBF744F9002CD7D106B070BD6C0100102D
:10D0A00020205072696F2020205573656420202055
:10D0B0002046726565202050657220202020204384
:10D0C0005055202020205461736B6E616D650D0AF0
:10D0D000000000000000C8422020202532642020EB
:10D0E0002535642020253564202020202530326419
:10D0F000252520202025352E326625252020202597
:10D10000730D0A0070B5C8884549464A00240B785B
:10D11000454D0E389168B0F5005006D0012840D03A
:10D1200042A0FBF7C1F9002070BD4748032B4268BD
:10D13000006814D0052B23D0082BF4D1434B186082
:10D140005A60434B18605A60A1F872400621354876
:10D150000FF048FDA8680621A0F872403AE03D4B68
:10D1600018605A603C4B18605A60A1F84E40042188
:10D170002C480FF037FDA8680421A0F84E4029E0A4
:10D18000364B18605A60364B18605A60A1F8604000
:10D19000052124480FF026FDA8680521A0F860406D
:10D1A00018E03048032B4268006817D0052B26D0C2
:10D1B000082BB8D12C4B18605A602C4B18605A6061
:10D1C000A1F8E044452117480FF00CFDA86845215F
:10D1D000A0F8E04414480FF005FDA4E7244B1860C4
:10D1E0005A60244B18605A60A1F8BC4443210D4892
:10D1F0000FF0F8FCA8684321A0F8BC44EAE71E4BF6
:10D2000018605A601D4B18605A60A1F8CE44442142
:10D2100004480FF0E7FCA8684421A0F8CE44D9E701
:10D2200002000010E447002064920020446F6F72F7
:10D2300020415050312043616C6C20426F61726418
:10D2400020457272210D0A00C2830010AA0100203D
:10D25000FE420010A2010020F6420010F201001070
:10D260005A4B0020DE95002088020020DC4300108D
:10D2700080020020D4430010D9020010414C00204D
:10D280002DE9F04F8BB00C46DDE91565834602EBC6
:10D29000C212DFF818C14FF0100ADDF850802021CB
:10D2A000404F414802EB821202EB0C09CDF824A05A
:10D2B000802B28D2102213FB02716846FBF700FB7B
:10D2C0004FF0080C0021EE460BEB010303EBC313F8
:10D2D0001EF8012000204B444FF6FF780AE01706A5
:10D2E00004EB000701D5DE5500E0DD55401C08EADF
:10D2F000420280B26045F2D3491C89B25145E3D362
:10D300000BB0BDE8F08FB8F1000FF9D000278A1CF0
:10D310000892DDF820C007FB0CF27F1C10F802C059
:10D32000FFB2E6469C450DD100EB020C9CF801C013
:10D33000C44507D1921C10440A4601466846FBF7D3
:10D34000BFFA09E0BEF1FF0FE3D102445278FF2A91
:10D35000DFD16846FBF7F9FA002120E06A4602EBCC
:10D3600041021DF8110052780BEB010342EA002242
:10D3700003EBC31300204B444FF6FF7C0AE0170475
:10D3800004EB000701D5DE5500E0DD55401C0CEA3A
:10D39000420280B2099FB842F1D3491C89B251457B
:10D3A000DCD3ADE76CD90108A0E90108AADB0020B5
:10D3B0002DE9FE4F1D46DDE90C8791460E4682465B
:10D3C000002415E005EB040106EBC4004978CDE923
:10D3D0000018C1B2802B02974A46504602D2FFF78E
:10D3E0004FFF03E0FFF74CFF641CE4B2641CE4B29F
:10D3F0002B5D002BE6D1BDE8FE8F00002DE9F04348
:10D40000203BDDE90767DCB20B1D802B2DD8831D87
:10D41000402B2AD8164D02EBC21205EB0409154C1D
:10D4200002EB8212002302EB040C09EB5302DC072F
:10D430001278640FA240D4B20022C51805EBC515BE
:10D4400065445FEA046801EB020802D505F808604C
:10D4500001E005F808706406521C240ED2B2042ABA
:10D46000EFD35B1CDBB2062BDFD3BDE8F0830000FB
:10D470009DE90108AADB00202DE9FC471D46DDE9F6
:10D480000A8791460E468246002408E0CDE90087CF
:10D49000C1B24A465046FFF7B1FF641CE4B22B5DAF
:10D4A000002B03D006EB84008028EFD3BDE8FC8777
:10D4B0002DE9F04F203B184CDBB204EB0309DDE90A
:10D4C00009BA02EBC212154B002502EB8212D718E3
:10D4D00001F1080619F80540F2B2002302EBC21868
:10D4E0005FEA046CB84402D508F800B001E008F81F
:10D4F00000A06406521E240ED2B28A4202D1401C01
:10D50000C0B203E05B1CDBB2082BE7D36D1CEDB2AD
:10D51000062DDFD3BDE8F08F9CE90108AADB0020CF
:10D520002DE9F0430DF11C0CDDE90B549CE8C00320
:10D5300001EBC10C0CEB4111DFF840C00CF801000D
:10D5400001EB0C0000214270C6708370077180F8F7
:10D550000590857180F807800A464318491CC9B2B6
:10D560001A722029F9D3002103E04318491C1A72CA
:10D57000C9B2625C002AF8D1BDE8F0832C1D0120FD
:10D58000F0B44FF0D8442425049E258020802280CA
:10D59000218023802680F0BCC8200DF091BA0000C5
:10D5A000F0B50C4D059C04EBC41404EB841467190E
:10D5B0000DE000EBC0150C463D4404E02E5DF64343
:10D5C0002E55641CE4B29C42F8D9401CC0B2904273
:10D5D000EFD9F0BDAADB00202DE9FC471D46DDE9AF
:10D5E0000A8791468A460646002408E0CDE900876E
:10D5F000C0B24A465146FFF75BFF641CE4B22B5DA4
:10D60000002B05D004EB440006EB40008028EDD34E
:10D61000BDE8FC8701F092B901490860704700003D
:10D62000143C0140034A0146002012680A4200D01F
:10D6300001207047143C014030B51A4A83790168D3
:10D6400053B313688B431360111D0B680468A34325
:10D650000B60017911440B68046823430B60114B84
:10D66000083319680468A14319601C1D2168056806
:10D67000A94321604179102905D011440A68006846
:10D6800002430A6030BD19680268114319602168BD
:10D6900000680143216030BD0079104402688A436C
:10D6A000026030BD003C01408000A0F1C040002974
:10D6B000016802D041F0010101E0024A114001601D
:10D6C00070470000FEFF0F0070B501688900A1F1EE
:10D6D000C0410B68334A1340D0E901242243D0E90A
:10D6E00003452C4322434469224384692243C4698D
:10D6F0002243046A2243446A2243846A2243C46A5E
:10D700002243046B22431A430A608168082907D127
:10D7100001688900A1F1C0410A6842F040020A6034
:10D7200001688A00A2F1C042516801F04043416B98
:10D73000D1E9004544EA05148D688E892D0245EA39
:10D7400006452C430D8A44EA05540D7D896944EA57
:10D7500005640C431C435460C16AB1F5804F08D086
:10D7600000686FF070418000A0F1C040C0F8041163
:10D7700070BD01688900A1F1C041D1F80421806B1E
:10D78000094B1A40D0E9003443EA041384688589C0
:10D79000240244EA05448069234303431343C1F848
:10D7A000043170BD8000F7FF0000F0CF08B50346DC
:10D7B000012000F008F8009300225F233F2110466B
:10D7C000FFF7DEFE08BD4FF0D84223211180108004
:10D7D0007047F0B5002201274FF0030C0B6807FAE1
:10D7E00002F52B40AB422CD1066853000CFA03F42F
:10D7F000A64306600E79D0F800E09E4046EA0E0689
:10D8000006600E79012E01D0022E12D18668A64341
:10D8100086604E79D0F808E09E4046EA0E068660A3
:10D820004668AE43466045688E799640B6B2354349
:10D830004560C568A543C560CC799C40C3681C435E
:10D84000C460521C102AC9D3F0BD4B07DB0E9A40AE
:10D85000C90810B500EB8100016A0F249C40A14368
:10D860000162016A1143016210BD02460020126983
:10D870000A4200D0012070470246002052690A4245
:10D8800000D00120704741837047018370470AB17F
:10D89000018370474183704770B50646D0F848024F
:10D8A000008818B30024351995F8C0010F2818D046
:10D8B00030680078A04214D095F8500240B9D6F8EC
:10D8C000442212B1214630469047012085F8C0011C
:10D8D00095F850022146401E85F8500230460DF062
:10D8E0005BFB641CE4B2802CDDD370BDB6F9400252
:10D8F000FFF788FBA6F8400270BD000050F804BB9B
:10D9000050F804AB50F8089B90E8F00050F8048CF5
:10D9100023A0FAF7C9FD59462DA0FAF7C5FD5146D7
:10D920002EA0FAF7C1FD49462FA0FAF7BDFD4146EA
:10D9300030A0FAF7B9FD214631A0FAF7B5FD294626
:10D9400032A0FAF7B1FD31463CA0FAF7ADFD3946F9
:10D9500042A0FAF7A9FD4448016844A0FAF7A4FDE3
:10D9600041481038016845A0FAF79EFD3E480C3842
:10D97000016846A0FAF798FD3B480838016847A0BF
:10D98000FAF792FD3848001D016848A0FAF78CFDAF
:10D9900035481438016849A0FAF786FDFEE7000013
:10D9A0000A0A5B48617264206661756C7420686164
:10D9B0006E646C6572202D20616C6C206E756D62DA
:10D9C00065727320696E206865785D0D0A0000003D
:10D9D0005230203D2025780D0A0000005231203DB4
:10D9E0002025780D0A0000005232203D2025780DB8
:10D9F0000A0000005233203D2025780D0A00000067
:10DA0000523132203D2025780D0A00004C52205B17
:10DA10005231345D203D20257820737562726F7518
:10DA200074696E652063616C6C2072657475726ECA
:10DA300020616464726573730D0A00005043205BBB
:10DA40005231355D203D2025782070726F677261FC
:10DA50006D20636F756E7465720D0A00505352200D
:10DA60003D2025780D0A000038ED00E04246415285
:10DA7000203D20256C780D0A0000000043465352DB
:10DA8000203D20256C780D0A0000000048465352C6
:10DA9000203D20256C780D0A0000000044465352BA
:10DAA000203D20256C780D0A0000000041465352AD
:10DAB000203D20256C780D0A000000005343425F92
:10DAC0005348435352203D2025780D0A00000000A2
:10DAD00010B50248FEF7DAF8002010BD94000020CF
